{
  "_format": "hh-sol-artifact-1",
  "contractName": "HapeMfers",
  "sourceName": "contracts/HapeMfers.sol",
  "abi": [
    {
      "inputs": [],
      "stateMutability": "nonpayable",
      "type": "constructor"
    },
    {
      "anonymous": false,
      "inputs": [
        {
          "indexed": true,
          "internalType": "address",
          "name": "owner",
          "type": "address"
        },
        {
          "indexed": true,
          "internalType": "address",
          "name": "approved",
          "type": "address"
        },
        {
          "indexed": true,
          "internalType": "uint256",
          "name": "tokenId",
          "type": "uint256"
        }
      ],
      "name": "Approval",
      "type": "event"
    },
    {
      "anonymous": false,
      "inputs": [
        {
          "indexed": true,
          "internalType": "address",
          "name": "owner",
          "type": "address"
        },
        {
          "indexed": true,
          "internalType": "address",
          "name": "operator",
          "type": "address"
        },
        {
          "indexed": false,
          "internalType": "bool",
          "name": "approved",
          "type": "bool"
        }
      ],
      "name": "ApprovalForAll",
      "type": "event"
    },
    {
      "anonymous": false,
      "inputs": [
        {
          "indexed": true,
          "internalType": "address",
          "name": "previousOwner",
          "type": "address"
        },
        {
          "indexed": true,
          "internalType": "address",
          "name": "newOwner",
          "type": "address"
        }
      ],
      "name": "OwnershipTransferred",
      "type": "event"
    },
    {
      "anonymous": false,
      "inputs": [
        {
          "indexed": true,
          "internalType": "address",
          "name": "from",
          "type": "address"
        },
        {
          "indexed": true,
          "internalType": "address",
          "name": "to",
          "type": "address"
        },
        {
          "indexed": true,
          "internalType": "uint256",
          "name": "tokenId",
          "type": "uint256"
        }
      ],
      "name": "Transfer",
      "type": "event"
    },
    {
      "inputs": [],
      "name": "MAX_SUPPLY",
      "outputs": [
        {
          "internalType": "uint256",
          "name": "",
          "type": "uint256"
        }
      ],
      "stateMutability": "view",
      "type": "function"
    },
    {
      "inputs": [],
      "name": "PUBLIC_PRICE",
      "outputs": [
        {
          "internalType": "uint256",
          "name": "",
          "type": "uint256"
        }
      ],
      "stateMutability": "view",
      "type": "function"
    },
    {
      "inputs": [],
      "name": "SALE_IS_ACTIVE",
      "outputs": [
        {
          "internalType": "bool",
          "name": "",
          "type": "bool"
        }
      ],
      "stateMutability": "view",
      "type": "function"
    },
    {
      "inputs": [
        {
          "internalType": "address",
          "name": "to",
          "type": "address"
        },
        {
          "internalType": "uint256",
          "name": "tokenId",
          "type": "uint256"
        }
      ],
      "name": "approve",
      "outputs": [],
      "stateMutability": "nonpayable",
      "type": "function"
    },
    {
      "inputs": [
        {
          "internalType": "address",
          "name": "owner",
          "type": "address"
        }
      ],
      "name": "balanceOf",
      "outputs": [
        {
          "internalType": "uint256",
          "name": "",
          "type": "uint256"
        }
      ],
      "stateMutability": "view",
      "type": "function"
    },
    {
      "inputs": [],
      "name": "flipSaleState",
      "outputs": [],
      "stateMutability": "nonpayable",
      "type": "function"
    },
    {
      "inputs": [
        {
          "internalType": "uint256",
          "name": "tokenId",
          "type": "uint256"
        }
      ],
      "name": "getApproved",
      "outputs": [
        {
          "internalType": "address",
          "name": "",
          "type": "address"
        }
      ],
      "stateMutability": "view",
      "type": "function"
    },
    {
      "inputs": [
        {
          "internalType": "address",
          "name": "owner",
          "type": "address"
        },
        {
          "internalType": "address",
          "name": "operator",
          "type": "address"
        }
      ],
      "name": "isApprovedForAll",
      "outputs": [
        {
          "internalType": "bool",
          "name": "",
          "type": "bool"
        }
      ],
      "stateMutability": "view",
      "type": "function"
    },
    {
      "inputs": [
        {
          "internalType": "uint256",
          "name": "nMints",
          "type": "uint256"
        }
      ],
      "name": "mint",
      "outputs": [],
      "stateMutability": "payable",
      "type": "function"
    },
    {
      "inputs": [],
      "name": "name",
      "outputs": [
        {
          "internalType": "string",
          "name": "",
          "type": "string"
        }
      ],
      "stateMutability": "view",
      "type": "function"
    },
    {
      "inputs": [],
      "name": "owner",
      "outputs": [
        {
          "internalType": "address",
          "name": "",
          "type": "address"
        }
      ],
      "stateMutability": "view",
      "type": "function"
    },
    {
      "inputs": [
        {
          "internalType": "uint256",
          "name": "tokenId",
          "type": "uint256"
        }
      ],
      "name": "ownerOf",
      "outputs": [
        {
          "internalType": "address",
          "name": "",
          "type": "address"
        }
      ],
      "stateMutability": "view",
      "type": "function"
    },
    {
      "inputs": [],
      "name": "renounceOwnership",
      "outputs": [],
      "stateMutability": "nonpayable",
      "type": "function"
    },
    {
      "inputs": [
        {
          "internalType": "address",
          "name": "from",
          "type": "address"
        },
        {
          "internalType": "address",
          "name": "to",
          "type": "address"
        },
        {
          "internalType": "uint256",
          "name": "tokenId",
          "type": "uint256"
        }
      ],
      "name": "safeTransferFrom",
      "outputs": [],
      "stateMutability": "nonpayable",
      "type": "function"
    },
    {
      "inputs": [
        {
          "internalType": "address",
          "name": "from",
          "type": "address"
        },
        {
          "internalType": "address",
          "name": "to",
          "type": "address"
        },
        {
          "internalType": "uint256",
          "name": "tokenId",
          "type": "uint256"
        },
        {
          "internalType": "bytes",
          "name": "_data",
          "type": "bytes"
        }
      ],
      "name": "safeTransferFrom",
      "outputs": [],
      "stateMutability": "nonpayable",
      "type": "function"
    },
    {
      "inputs": [
        {
          "internalType": "address",
          "name": "operator",
          "type": "address"
        },
        {
          "internalType": "bool",
          "name": "approved",
          "type": "bool"
        }
      ],
      "name": "setApprovalForAll",
      "outputs": [],
      "stateMutability": "nonpayable",
      "type": "function"
    },
    {
      "inputs": [
        {
          "internalType": "string",
          "name": "baseURI_",
          "type": "string"
        }
      ],
      "name": "setBaseURI",
      "outputs": [],
      "stateMutability": "nonpayable",
      "type": "function"
    },
    {
      "inputs": [
        {
          "internalType": "bytes4",
          "name": "interfaceId",
          "type": "bytes4"
        }
      ],
      "name": "supportsInterface",
      "outputs": [
        {
          "internalType": "bool",
          "name": "",
          "type": "bool"
        }
      ],
      "stateMutability": "view",
      "type": "function"
    },
    {
      "inputs": [],
      "name": "symbol",
      "outputs": [
        {
          "internalType": "string",
          "name": "",
          "type": "string"
        }
      ],
      "stateMutability": "view",
      "type": "function"
    },
    {
      "inputs": [
        {
          "internalType": "uint256",
          "name": "index",
          "type": "uint256"
        }
      ],
      "name": "tokenByIndex",
      "outputs": [
        {
          "internalType": "uint256",
          "name": "",
          "type": "uint256"
        }
      ],
      "stateMutability": "view",
      "type": "function"
    },
    {
      "inputs": [
        {
          "internalType": "address",
          "name": "owner",
          "type": "address"
        },
        {
          "internalType": "uint256",
          "name": "index",
          "type": "uint256"
        }
      ],
      "name": "tokenOfOwnerByIndex",
      "outputs": [
        {
          "internalType": "uint256",
          "name": "",
          "type": "uint256"
        }
      ],
      "stateMutability": "view",
      "type": "function"
    },
    {
      "inputs": [
        {
          "internalType": "uint256",
          "name": "tokenId",
          "type": "uint256"
        }
      ],
      "name": "tokenURI",
      "outputs": [
        {
          "internalType": "string",
          "name": "",
          "type": "string"
        }
      ],
      "stateMutability": "view",
      "type": "function"
    },
    {
      "inputs": [],
      "name": "totalSupply",
      "outputs": [
        {
          "internalType": "uint256",
          "name": "",
          "type": "uint256"
        }
      ],
      "stateMutability": "view",
      "type": "function"
    },
    {
      "inputs": [
        {
          "internalType": "address",
          "name": "from",
          "type": "address"
        },
        {
          "internalType": "address",
          "name": "to",
          "type": "address"
        },
        {
          "internalType": "uint256",
          "name": "tokenId",
          "type": "uint256"
        }
      ],
      "name": "transferFrom",
      "outputs": [],
      "stateMutability": "nonpayable",
      "type": "function"
    },
    {
      "inputs": [
        {
          "internalType": "address",
          "name": "newOwner",
          "type": "address"
        }
      ],
      "name": "transferOwnership",
      "outputs": [],
      "stateMutability": "nonpayable",
      "type": "function"
    },
    {
      "inputs": [],
      "name": "withdrawAll",
      "outputs": [],
      "stateMutability": "nonpayable",
      "type": "function"
    },
    {
      "stateMutability": "payable",
      "type": "receive"
    }
  ],
  "bytecode": "0x60806040527f1eabc259bf80bdb486eaf645007496fb9aa7ae25de9ceed19d6a2e3efc950968600155600b805460ff191690553480156200003f57600080fd5b50604080518082018252600a81526948617065204d6665727360b01b602080830191825283518085019094526002845261484d60f01b9084015281519192916200008c9160039162000120565b508051620000a290600490602084019062000120565b505050620000bf620000b9620000ca60201b60201c565b620000ce565b6001600a5562000203565b3390565b600980546001600160a01b038381166001600160a01b0319831681179093556040519116919082907f8be0079c531659141344cd1fd0a4f28419497f9722a3daafe3b4186f6b6457e090600090a35050565b8280546200012e90620001c6565b90600052602060002090601f0160209004810192826200015257600085556200019d565b82601f106200016d57805160ff19168380011785556200019d565b828001600101855582156200019d579182015b828111156200019d57825182559160200191906001019062000180565b50620001ab929150620001af565b5090565b5b80821115620001ab5760008155600101620001b0565b600281046001821680620001db57607f821691505b60208210811415620001fd57634e487b7160e01b600052602260045260246000fd5b50919050565b6123be80620002136000396000f3fe6080604052600436106101855760003560e01c8063611f3f10116100d157806395d89b411161008a578063b88d4fde11610064578063b88d4fde14610415578063c87b56dd14610435578063e985e9c514610455578063f2fde38b146104755761018c565b806395d89b41146103cd578063a0712d68146103e2578063a22cb465146103f55761018c565b8063611f3f10146103395780636352211e1461034e57806370a082311461036e578063715018a61461038e578063853828b6146103a35780638da5cb5b146103b85761018c565b806323b872dd1161013e57806334918dfd1161011857806334918dfd146102c457806342842e0e146102d95780634f6ccce7146102f957806355f804b3146103195761018c565b806323b872dd1461026f5780632f745c591461028f57806332cb6b0c146102af5761018c565b806301ffc9a71461019157806306eda1b5146101c757806306fdde03146101dc578063081812fc146101fe578063095ea7b31461022b57806318160ddd1461024d5761018c565b3661018c57005b600080fd5b34801561019d57600080fd5b506101b16101ac366004611a41565b610495565b6040516101be9190611bda565b60405180910390f35b3480156101d357600080fd5b506101b16104f8565b3480156101e857600080fd5b506101f1610501565b6040516101be9190611be5565b34801561020a57600080fd5b5061021e610219366004611ae6565b610593565b6040516101be9190611b89565b34801561023757600080fd5b5061024b610246366004611a18565b6105df565b005b34801561025957600080fd5b50610262610678565b6040516101be919061222f565b34801561027b57600080fd5b5061024b61028a3660046118d7565b61067e565b34801561029b57600080fd5b506102626102aa366004611a18565b610689565b3480156102bb57600080fd5b50610262610774565b3480156102d057600080fd5b5061024b61077a565b3480156102e557600080fd5b5061024b6102f43660046118d7565b610856565b34801561030557600080fd5b50610262610314366004611ae6565b610871565b34801561032557600080fd5b5061024b610334366004611a79565b61089d565b34801561034557600080fd5b50610262610954565b34801561035a57600080fd5b5061021e610369366004611ae6565b61095f565b34801561037a57600080fd5b5061026261038936600461188b565b610971565b34801561039a57600080fd5b5061024b6109be565b3480156103af57600080fd5b5061024b610a75565b3480156103c457600080fd5b5061021e610b4e565b3480156103d957600080fd5b506101f1610b5d565b61024b6103f0366004611ae6565b610b6c565b34801561040157600080fd5b5061024b6104103660046119de565b610c2c565b34801561042157600080fd5b5061024b610430366004611912565b610cfa565b34801561044157600080fd5b506101f1610450366004611ae6565b610d33565b34801561046157600080fd5b506101b16104703660046118a5565b610dcf565b34801561048157600080fd5b5061024b61049036600461188b565b610dfd565b60006001600160e01b031982166380ac58cd60e01b14806104c657506001600160e01b03198216635b5e139f60e01b145b806104e157506001600160e01b0319821663780e9d6360e01b145b806104f057506104f082610ed7565b90505b919050565b600b5460ff1681565b606060038054610510906122c6565b80601f016020809104026020016040519081016040528092919081815260200182805461053c906122c6565b80156105895780601f1061055e57610100808354040283529160200191610589565b820191906000526020600020905b81548152906001019060200180831161056c57829003601f168201915b5050505050905090565b600061059e82610ef0565b6105c35760405162461bcd60e51b81526004016105ba906121e2565b60405180910390fd5b506000908152600760205260409020546001600160a01b031690565b60006105ea8261095f565b9050806001600160a01b0316836001600160a01b0316141561061e5760405162461bcd60e51b81526004016105ba90612015565b806001600160a01b0316610630610ef7565b6001600160a01b0316148061064c575061064c81610470610ef7565b6106685760405162461bcd60e51b81526004016105ba90611dee565b610673838383610efb565b505050565b60025490565b610673838383610f57565b600061069483610971565b82106106b25760405162461bcd60e51b81526004016105ba90611bf8565b60006106bc610678565b905060008060005b83811015610755576000818152600560209081526040918290208251808401909352546001600160a01b038116808452600160a01b90910467ffffffffffffffff16918301919091521561071757805192505b876001600160a01b0316836001600160a01b0316141561074c57868414156107455750935061076e92505050565b6001909301925b506001016106c4565b5060405162461bcd60e51b81526004016105ba9061215d565b92915050565b6115b381565b610782610ef7565b6001600160a01b0316610793610b4e565b6001600160a01b03161480610826575061082660008054806020026020016040519081016040528092919081815260200182805480156107f257602002820191906000526020600020905b8154815260200190600101908083116107de575b50505050506001543360405160200161080b9190611b2a565b604051602081830303815290604052805190602001206111c4565b6108425760405162461bcd60e51b81526004016105ba90611f08565b600b805460ff19811660ff90911615179055565b61067383838360405180602001604052806000815250610cfa565b600061087b610678565b82106108995760405162461bcd60e51b81526004016105ba90611d01565b5090565b6108a5610ef7565b6001600160a01b03166108b6610b4e565b6001600160a01b0316148061092c575061092c60008054806020026020016040519081016040528092919081815260200182805480156107f257602002820191906000526020600020908154815260200190600101908083116107de5750505050506001543360405160200161080b9190611b2a565b6109485760405162461bcd60e51b81526004016105ba90611f08565b610673600c83836117c8565b6618838370f3400081565b600061096a826111da565b5192915050565b60006001600160a01b0382166109995760405162461bcd60e51b81526004016105ba90611e77565b506001600160a01b03166000908152600660205260409020546001600160801b031690565b6109c6610ef7565b6001600160a01b03166109d7610b4e565b6001600160a01b03161480610a4d5750610a4d60008054806020026020016040519081016040528092919081815260200182805480156107f257602002820191906000526020600020908154815260200190600101908083116107de5750505050506001543360405160200161080b9190611b2a565b610a695760405162461bcd60e51b81526004016105ba90611f08565b610a736000611262565b565b610a7d610ef7565b6001600160a01b0316610a8e610b4e565b6001600160a01b03161480610b045750610b0460008054806020026020016040519081016040528092919081815260200182805480156107f257602002820191906000526020600020908154815260200190600101908083116107de5750505050506001543360405160200161080b9190611b2a565b610b205760405162461bcd60e51b81526004016105ba90611f08565b60004711610b405760405162461bcd60e51b81526004016105ba90611dc0565b47610b4b33826112b4565b50565b6009546001600160a01b031690565b606060048054610510906122c6565b6002600a541415610b8f5760405162461bcd60e51b81526004016105ba906121ab565b6002600a55600b5460ff16610bb65760405162461bcd60e51b81526004016105ba90611c3a565b6115b381610bc2610678565b610bcc9190612238565b1115610bea5760405162461bcd60e51b81526004016105ba90611e4b565b34610bfc826618838370f34000612264565b1115610c1a5760405162461bcd60e51b81526004016105ba90611d89565b610c243382611330565b506001600a55565b610c34610ef7565b6001600160a01b0316826001600160a01b03161415610c655760405162461bcd60e51b81526004016105ba90611f8c565b8060086000610c72610ef7565b6001600160a01b03908116825260208083019390935260409182016000908120918716808252919093529120805460ff191692151592909217909155610cb6610ef7565b6001600160a01b03167f17307eab39ab6107e8899845ad3d59bd9653f200f220920489ca2b5937696c3183604051610cee9190611bda565b60405180910390a35050565b610d05848484610f57565b610d118484848461134e565b610d2d5760405162461bcd60e51b81526004016105ba90612081565b50505050565b6060610d3e82610ef0565b610d5a5760405162461bcd60e51b81526004016105ba90611f3d565b6000610d6461146a565b9050805160001415610d935760405180604001604052806005815260200164173539b7b760d91b815250610dc8565b80610da7610da2856001612238565b611479565b604051602001610db8929190611b47565b6040516020818303038152906040525b9392505050565b6001600160a01b03918216600090815260086020908152604080832093909416825291909152205460ff1690565b610e05610ef7565b6001600160a01b0316610e16610b4e565b6001600160a01b03161480610e8c5750610e8c60008054806020026020016040519081016040528092919081815260200182805480156107f257602002820191906000526020600020908154815260200190600101908083116107de5750505050506001543360405160200161080b9190611b2a565b610ea85760405162461bcd60e51b81526004016105ba90611f08565b6001600160a01b038116610ece5760405162461bcd60e51b81526004016105ba90611c71565b610b4b81611262565b6001600160e01b031981166301ffc9a760e01b14919050565b6002541190565b3390565b60008281526007602052604080822080546001600160a01b0319166001600160a01b0387811691821790925591518593918516917f8c5be1e5ebec7d5bd14f71427d1e84f3dd0314c0f7b2291e5b200ac8c7c3b92591a4505050565b6000610f62826111da565b9050600081600001516001600160a01b0316610f7c610ef7565b6001600160a01b03161480610fb15750610f94610ef7565b6001600160a01b0316610fa684610593565b6001600160a01b0316145b80610fc557508151610fc590610470610ef7565b905080610fe45760405162461bcd60e51b81526004016105ba90611fc3565b846001600160a01b031682600001516001600160a01b0316146110195760405162461bcd60e51b81526004016105ba90611ec2565b6001600160a01b03841661103f5760405162461bcd60e51b81526004016105ba90611d44565b61104c8585856001610d2d565b61105c6000848460000151610efb565b6001600160a01b03858116600090815260066020908152604080832080546001600160801b03198082166001600160801b03928316600019018316179092558986168086528386208054938416938316600190810190931693909317909255888552600590935281842080546001600160a01b03191690911767ffffffffffffffff60a01b1916600160a01b4267ffffffffffffffff160217905590860180835291205490911661116e5761111081610ef0565b1561116e578251600082815260056020908152604090912080549186015167ffffffffffffffff16600160a01b0267ffffffffffffffff60a01b196001600160a01b039094166001600160a01b031990931692909217929092161790555b5082846001600160a01b0316866001600160a01b03167fddf252ad1be2c89b69c2b068fc378daa952ba7f163c4a11628f55a4df523b3ef60405160405180910390a46111bd8585856001610d2d565b5050505050565b6000826111d18584611594565b14949350505050565b6111e2611848565b6111eb82610ef0565b6112075760405162461bcd60e51b81526004016105ba90611cb7565b815b6000818152600560209081526040918290208251808401909352546001600160a01b038116808452600160a01b90910467ffffffffffffffff1691830191909152156112585791506104f39050565b5060001901611209565b600980546001600160a01b038381166001600160a01b0319831681179093556040519116919082907f8be0079c531659141344cd1fd0a4f28419497f9722a3daafe3b4186f6b6457e090600090a35050565b6000826001600160a01b0316826040516112cd90611b86565b60006040518083038185875af1925050503d806000811461130a576040519150601f19603f3d011682016040523d82523d6000602084013e61130f565b606091505b50509050806106735760405162461bcd60e51b81526004016105ba90612057565b61134a82826040518060200160405280600081525061160e565b5050565b6000611362846001600160a01b031661161b565b1561145e57836001600160a01b031663150b7a0261137e610ef7565b8786866040518563ffffffff1660e01b81526004016113a09493929190611b9d565b602060405180830381600087803b1580156113ba57600080fd5b505af19250505080156113ea575060408051601f3d908101601f191682019092526113e791810190611a5d565b60015b611444573d808015611418576040519150601f19603f3d011682016040523d82523d6000602084013e61141d565b606091505b50805161143c5760405162461bcd60e51b81526004016105ba90612081565b805181602001fd5b6001600160e01b031916630a85bd0160e11b149050611462565b5060015b949350505050565b6060600c8054610510906122c6565b60608161149e57506040805180820190915260018152600360fc1b60208201526104f3565b8160005b81156114c857806114b281612301565b91506114c19050600a83612250565b91506114a2565b60008167ffffffffffffffff8111156114f157634e487b7160e01b600052604160045260246000fd5b6040519080825280601f01601f19166020018201604052801561151b576020820181803683370190505b5090505b841561146257611530600183612283565b915061153d600a8661231c565b611548906030612238565b60f81b81838151811061156b57634e487b7160e01b600052603260045260246000fd5b60200101906001600160f81b031916908160001a90535061158d600a86612250565b945061151f565b600081815b84518110156116065760008582815181106115c457634e487b7160e01b600052603260045260246000fd5b602002602001015190508083116115e6576115df838261164c565b92506115f3565b6115f0818461164c565b92505b50806115fe81612301565b915050611599565b509392505050565b610673838383600161165b565b600080826001600160a01b0316803b806020016040519081016040528181526000908060200190933c511192915050565b60009182526020526040902090565b6002546001600160a01b0385166116845760405162461bcd60e51b81526004016105ba906120d4565b836116a15760405162461bcd60e51b81526004016105ba90612115565b6116ae6000868387610d2d565b6001600160a01b038516600081815260066020908152604080832080546001600160801b031981166001600160801b039182168b01821617808216600160801b9182900483168c01909216021790558483526005909152812080546001600160a01b03191690921767ffffffffffffffff60a01b1916600160a01b4267ffffffffffffffff16021790915581905b858110156117b75760405182906001600160a01b038916906000907fddf252ad1be2c89b69c2b068fc378daa952ba7f163c4a11628f55a4df523b3ef908290a483156117ab5761178f600088848861134e565b6117ab5760405162461bcd60e51b81526004016105ba90612081565b6001918201910161173c565b506002556111bd6000868387610d2d565b8280546117d4906122c6565b90600052602060002090601f0160209004810192826117f6576000855561183c565b82601f1061180f5782800160ff1982351617855561183c565b8280016001018555821561183c579182015b8281111561183c578235825591602001919060010190611821565b5061089992915061185f565b604080518082019091526000808252602082015290565b5b808211156108995760008155600101611860565b80356001600160a01b03811681146104f357600080fd5b60006020828403121561189c578081fd5b610dc882611874565b600080604083850312156118b7578081fd5b6118c083611874565b91506118ce60208401611874565b90509250929050565b6000806000606084860312156118eb578081fd5b6118f484611874565b925061190260208501611874565b9150604084013590509250925092565b60008060008060808587031215611927578081fd5b61193085611874565b9350602061193f818701611874565b935060408601359250606086013567ffffffffffffffff80821115611962578384fd5b818801915088601f830112611975578384fd5b8135818111156119875761198761235c565b604051601f8201601f19168101850183811182821017156119aa576119aa61235c565b60405281815283820185018b10156119c0578586fd5b81858501868301379081019093019390935250939692955090935050565b600080604083850312156119f0578182fd5b6119f983611874565b915060208301358015158114611a0d578182fd5b809150509250929050565b60008060408385031215611a2a578182fd5b611a3383611874565b946020939093013593505050565b600060208284031215611a52578081fd5b8135610dc881612372565b600060208284031215611a6e578081fd5b8151610dc881612372565b60008060208385031215611a8b578182fd5b823567ffffffffffffffff80821115611aa2578384fd5b818501915085601f830112611ab5578384fd5b813581811115611ac3578485fd5b866020828501011115611ad4578485fd5b60209290920196919550909350505050565b600060208284031215611af7578081fd5b5035919050565b60008151808452611b1681602086016020860161229a565b601f01601f19169290920160200192915050565b60609190911b6bffffffffffffffffffffffff1916815260140190565b60008351611b5981846020880161229a565b835190830190611b6d81836020880161229a565b64173539b7b760d91b9101908152600501949350505050565b90565b6001600160a01b0391909116815260200190565b6001600160a01b0385811682528416602082015260408101839052608060608201819052600090611bd090830184611afe565b9695505050505050565b901515815260200190565b600060208252610dc86020830184611afe565b60208082526022908201527f455243373231413a206f776e657220696e646578206f7574206f6620626f756e604082015261647360f01b606082015260800190565b60208082526019908201527f4d696e74696e67206973206e6f7420616374697665206e6f7700000000000000604082015260600190565b60208082526026908201527f4f776e61626c653a206e6577206f776e657220697320746865207a65726f206160408201526564647265737360d01b606082015260800190565b6020808252602a908201527f455243373231413a206f776e657220717565727920666f72206e6f6e657869736040820152693a32b73a103a37b5b2b760b11b606082015260800190565b60208082526023908201527f455243373231413a20676c6f62616c20696e646578206f7574206f6620626f756040820152626e647360e81b606082015260800190565b60208082526025908201527f455243373231413a207472616e7366657220746f20746865207a65726f206164604082015264647265737360d81b606082015260800190565b60208082526018908201527f53656e7420696e636f7272656374204554482076616c75650000000000000000604082015260600190565b6020808252601490820152734e6f2066756e647320746f20776974686472617760601b604082015260600190565b60208082526039908201527f455243373231413a20617070726f76652063616c6c6572206973206e6f74206f60408201527f776e6572206e6f7220617070726f76656420666f7220616c6c00000000000000606082015260800190565b60208082526012908201527145786365656473206d617820737570706c7960701b604082015260600190565b6020808252602b908201527f455243373231413a2062616c616e636520717565727920666f7220746865207a60408201526a65726f206164647265737360a81b606082015260800190565b60208082526026908201527f455243373231413a207472616e736665722066726f6d20696e636f72726563746040820152651037bbb732b960d11b606082015260800190565b6020808252818101527f4f776e61626c653a2063616c6c6572206973206e6f7420746865206f776e6572604082015260600190565b6020808252602f908201527f4552433732314d657461646174613a2055524920717565727920666f72206e6f60408201526e3732bc34b9ba32b73a103a37b5b2b760891b606082015260800190565b6020808252601a908201527f455243373231413a20617070726f766520746f2063616c6c6572000000000000604082015260600190565b60208082526032908201527f455243373231413a207472616e736665722063616c6c6572206973206e6f74206040820152711bdddb995c881b9bdc88185c1c1c9bdd995960721b606082015260800190565b60208082526022908201527f455243373231413a20617070726f76616c20746f2063757272656e74206f776e60408201526132b960f11b606082015260800190565b60208082526010908201526f2a3930b739b332b9103330b4b632b21760811b604082015260600190565b60208082526033908201527f455243373231413a207472616e7366657220746f206e6f6e204552433732315260408201527232b1b2b4bb32b91034b6b83632b6b2b73a32b960691b606082015260800190565b60208082526021908201527f455243373231413a206d696e7420746f20746865207a65726f206164647265736040820152607360f81b606082015260800190565b60208082526028908201527f455243373231413a207175616e74697479206d75737420626520677265617465604082015267072207468616e20360c41b606082015260800190565b6020808252602e908201527f455243373231413a20756e61626c6520746f2067657420746f6b656e206f662060408201526d0deeedccae440c4f240d2dcc8caf60931b606082015260800190565b6020808252601f908201527f5265656e7472616e637947756172643a207265656e7472616e742063616c6c00604082015260600190565b6020808252602d908201527f455243373231413a20617070726f76656420717565727920666f72206e6f6e6560408201526c3c34b9ba32b73a103a37b5b2b760991b606082015260800190565b90815260200190565b6000821982111561224b5761224b612330565b500190565b60008261225f5761225f612346565b500490565b600081600019048311821515161561227e5761227e612330565b500290565b60008282101561229557612295612330565b500390565b60005b838110156122b557818101518382015260200161229d565b83811115610d2d5750506000910152565b6002810460018216806122da57607f821691505b602082108114156122fb57634e487b7160e01b600052602260045260246000fd5b50919050565b600060001982141561231557612315612330565b5060010190565b60008261232b5761232b612346565b500690565b634e487b7160e01b600052601160045260246000fd5b634e487b7160e01b600052601260045260246000fd5b634e487b7160e01b600052604160045260246000fd5b6001600160e01b031981168114610b4b57600080fdfea2646970667358221220886af6566588598024c53e6f60a346dcdd10554aad902bc9ef35677df06518fd64736f6c63430008000033",
  "linkReferences": {},
  "deployedLinkReferences": {}
}