{
  "_format": "hh-sol-artifact-1",
  "contractName": "Azuki",
  "sourceName": "contracts/Azuki.sol",
  "abi": [
    {
      "inputs": [
        {
          "internalType": "uint256",
          "name": "maxBatchSize_",
          "type": "uint256"
        },
        {
          "internalType": "uint256",
          "name": "collectionSize_",
          "type": "uint256"
        },
        {
          "internalType": "uint256",
          "name": "amountForAuctionAndDev_",
          "type": "uint256"
        },
        {
          "internalType": "uint256",
          "name": "amountForDevs_",
          "type": "uint256"
        }
      ],
      "stateMutability": "nonpayable",
      "type": "constructor"
    },
    {
      "anonymous": false,
      "inputs": [
        {
          "indexed": true,
          "internalType": "address",
          "name": "owner",
          "type": "address"
        },
        {
          "indexed": true,
          "internalType": "address",
          "name": "approved",
          "type": "address"
        },
        {
          "indexed": true,
          "internalType": "uint256",
          "name": "tokenId",
          "type": "uint256"
        }
      ],
      "name": "Approval",
      "type": "event"
    },
    {
      "anonymous": false,
      "inputs": [
        {
          "indexed": true,
          "internalType": "address",
          "name": "owner",
          "type": "address"
        },
        {
          "indexed": true,
          "internalType": "address",
          "name": "operator",
          "type": "address"
        },
        {
          "indexed": false,
          "internalType": "bool",
          "name": "approved",
          "type": "bool"
        }
      ],
      "name": "ApprovalForAll",
      "type": "event"
    },
    {
      "anonymous": false,
      "inputs": [
        {
          "indexed": true,
          "internalType": "address",
          "name": "previousOwner",
          "type": "address"
        },
        {
          "indexed": true,
          "internalType": "address",
          "name": "newOwner",
          "type": "address"
        }
      ],
      "name": "OwnershipTransferred",
      "type": "event"
    },
    {
      "anonymous": false,
      "inputs": [
        {
          "indexed": true,
          "internalType": "address",
          "name": "from",
          "type": "address"
        },
        {
          "indexed": true,
          "internalType": "address",
          "name": "to",
          "type": "address"
        },
        {
          "indexed": true,
          "internalType": "uint256",
          "name": "tokenId",
          "type": "uint256"
        }
      ],
      "name": "Transfer",
      "type": "event"
    },
    {
      "inputs": [],
      "name": "AUCTION_DROP_INTERVAL",
      "outputs": [
        {
          "internalType": "uint256",
          "name": "",
          "type": "uint256"
        }
      ],
      "stateMutability": "view",
      "type": "function"
    },
    {
      "inputs": [],
      "name": "AUCTION_DROP_PER_STEP",
      "outputs": [
        {
          "internalType": "uint256",
          "name": "",
          "type": "uint256"
        }
      ],
      "stateMutability": "view",
      "type": "function"
    },
    {
      "inputs": [],
      "name": "AUCTION_END_PRICE",
      "outputs": [
        {
          "internalType": "uint256",
          "name": "",
          "type": "uint256"
        }
      ],
      "stateMutability": "view",
      "type": "function"
    },
    {
      "inputs": [],
      "name": "AUCTION_PRICE_CURVE_LENGTH",
      "outputs": [
        {
          "internalType": "uint256",
          "name": "",
          "type": "uint256"
        }
      ],
      "stateMutability": "view",
      "type": "function"
    },
    {
      "inputs": [],
      "name": "AUCTION_START_PRICE",
      "outputs": [
        {
          "internalType": "uint256",
          "name": "",
          "type": "uint256"
        }
      ],
      "stateMutability": "view",
      "type": "function"
    },
    {
      "inputs": [
        {
          "internalType": "address",
          "name": "",
          "type": "address"
        }
      ],
      "name": "allowlist",
      "outputs": [
        {
          "internalType": "uint256",
          "name": "",
          "type": "uint256"
        }
      ],
      "stateMutability": "view",
      "type": "function"
    },
    {
      "inputs": [],
      "name": "allowlistMint",
      "outputs": [],
      "stateMutability": "payable",
      "type": "function"
    },
    {
      "inputs": [],
      "name": "amountForAuctionAndDev",
      "outputs": [
        {
          "internalType": "uint256",
          "name": "",
          "type": "uint256"
        }
      ],
      "stateMutability": "view",
      "type": "function"
    },
    {
      "inputs": [],
      "name": "amountForDevs",
      "outputs": [
        {
          "internalType": "uint256",
          "name": "",
          "type": "uint256"
        }
      ],
      "stateMutability": "view",
      "type": "function"
    },
    {
      "inputs": [
        {
          "internalType": "address",
          "name": "to",
          "type": "address"
        },
        {
          "internalType": "uint256",
          "name": "tokenId",
          "type": "uint256"
        }
      ],
      "name": "approve",
      "outputs": [],
      "stateMutability": "nonpayable",
      "type": "function"
    },
    {
      "inputs": [
        {
          "internalType": "uint256",
          "name": "quantity",
          "type": "uint256"
        }
      ],
      "name": "auctionMint",
      "outputs": [],
      "stateMutability": "payable",
      "type": "function"
    },
    {
      "inputs": [
        {
          "internalType": "address",
          "name": "owner",
          "type": "address"
        }
      ],
      "name": "balanceOf",
      "outputs": [
        {
          "internalType": "uint256",
          "name": "",
          "type": "uint256"
        }
      ],
      "stateMutability": "view",
      "type": "function"
    },
    {
      "inputs": [
        {
          "internalType": "uint256",
          "name": "quantity",
          "type": "uint256"
        }
      ],
      "name": "devMint",
      "outputs": [],
      "stateMutability": "nonpayable",
      "type": "function"
    },
    {
      "inputs": [
        {
          "internalType": "uint64",
          "name": "mintlistPriceWei",
          "type": "uint64"
        },
        {
          "internalType": "uint64",
          "name": "publicPriceWei",
          "type": "uint64"
        },
        {
          "internalType": "uint32",
          "name": "publicSaleStartTime",
          "type": "uint32"
        }
      ],
      "name": "endAuctionAndSetupNonAuctionSaleInfo",
      "outputs": [],
      "stateMutability": "nonpayable",
      "type": "function"
    },
    {
      "inputs": [
        {
          "internalType": "uint256",
          "name": "tokenId",
          "type": "uint256"
        }
      ],
      "name": "getApproved",
      "outputs": [
        {
          "internalType": "address",
          "name": "",
          "type": "address"
        }
      ],
      "stateMutability": "view",
      "type": "function"
    },
    {
      "inputs": [
        {
          "internalType": "uint256",
          "name": "_saleStartTime",
          "type": "uint256"
        }
      ],
      "name": "getAuctionPrice",
      "outputs": [
        {
          "internalType": "uint256",
          "name": "",
          "type": "uint256"
        }
      ],
      "stateMutability": "view",
      "type": "function"
    },
    {
      "inputs": [
        {
          "internalType": "uint256",
          "name": "tokenId",
          "type": "uint256"
        }
      ],
      "name": "getOwnershipData",
      "outputs": [
        {
          "components": [
            {
              "internalType": "address",
              "name": "addr",
              "type": "address"
            },
            {
              "internalType": "uint64",
              "name": "startTimestamp",
              "type": "uint64"
            }
          ],
          "internalType": "struct ERC721A.TokenOwnership",
          "name": "",
          "type": "tuple"
        }
      ],
      "stateMutability": "view",
      "type": "function"
    },
    {
      "inputs": [
        {
          "internalType": "address",
          "name": "owner",
          "type": "address"
        },
        {
          "internalType": "address",
          "name": "operator",
          "type": "address"
        }
      ],
      "name": "isApprovedForAll",
      "outputs": [
        {
          "internalType": "bool",
          "name": "",
          "type": "bool"
        }
      ],
      "stateMutability": "view",
      "type": "function"
    },
    {
      "inputs": [
        {
          "internalType": "uint256",
          "name": "publicPriceWei",
          "type": "uint256"
        },
        {
          "internalType": "uint256",
          "name": "publicSaleKey",
          "type": "uint256"
        },
        {
          "internalType": "uint256",
          "name": "publicSaleStartTime",
          "type": "uint256"
        }
      ],
      "name": "isPublicSaleOn",
      "outputs": [
        {
          "internalType": "bool",
          "name": "",
          "type": "bool"
        }
      ],
      "stateMutability": "view",
      "type": "function"
    },
    {
      "inputs": [],
      "name": "maxPerAddressDuringMint",
      "outputs": [
        {
          "internalType": "uint256",
          "name": "",
          "type": "uint256"
        }
      ],
      "stateMutability": "view",
      "type": "function"
    },
    {
      "inputs": [],
      "name": "name",
      "outputs": [
        {
          "internalType": "string",
          "name": "",
          "type": "string"
        }
      ],
      "stateMutability": "view",
      "type": "function"
    },
    {
      "inputs": [],
      "name": "nextOwnerToExplicitlySet",
      "outputs": [
        {
          "internalType": "uint256",
          "name": "",
          "type": "uint256"
        }
      ],
      "stateMutability": "view",
      "type": "function"
    },
    {
      "inputs": [
        {
          "internalType": "address",
          "name": "owner",
          "type": "address"
        }
      ],
      "name": "numberMinted",
      "outputs": [
        {
          "internalType": "uint256",
          "name": "",
          "type": "uint256"
        }
      ],
      "stateMutability": "view",
      "type": "function"
    },
    {
      "inputs": [],
      "name": "owner",
      "outputs": [
        {
          "internalType": "address",
          "name": "",
          "type": "address"
        }
      ],
      "stateMutability": "view",
      "type": "function"
    },
    {
      "inputs": [
        {
          "internalType": "uint256",
          "name": "tokenId",
          "type": "uint256"
        }
      ],
      "name": "ownerOf",
      "outputs": [
        {
          "internalType": "address",
          "name": "",
          "type": "address"
        }
      ],
      "stateMutability": "view",
      "type": "function"
    },
    {
      "inputs": [
        {
          "internalType": "uint256",
          "name": "quantity",
          "type": "uint256"
        },
        {
          "internalType": "uint256",
          "name": "callerPublicSaleKey",
          "type": "uint256"
        }
      ],
      "name": "publicSaleMint",
      "outputs": [],
      "stateMutability": "payable",
      "type": "function"
    },
    {
      "inputs": [],
      "name": "renounceOwnership",
      "outputs": [],
      "stateMutability": "nonpayable",
      "type": "function"
    },
    {
      "inputs": [
        {
          "internalType": "address",
          "name": "from",
          "type": "address"
        },
        {
          "internalType": "address",
          "name": "to",
          "type": "address"
        },
        {
          "internalType": "uint256",
          "name": "tokenId",
          "type": "uint256"
        }
      ],
      "name": "safeTransferFrom",
      "outputs": [],
      "stateMutability": "nonpayable",
      "type": "function"
    },
    {
      "inputs": [
        {
          "internalType": "address",
          "name": "from",
          "type": "address"
        },
        {
          "internalType": "address",
          "name": "to",
          "type": "address"
        },
        {
          "internalType": "uint256",
          "name": "tokenId",
          "type": "uint256"
        },
        {
          "internalType": "bytes",
          "name": "_data",
          "type": "bytes"
        }
      ],
      "name": "safeTransferFrom",
      "outputs": [],
      "stateMutability": "nonpayable",
      "type": "function"
    },
    {
      "inputs": [],
      "name": "saleConfig",
      "outputs": [
        {
          "internalType": "uint32",
          "name": "auctionSaleStartTime",
          "type": "uint32"
        },
        {
          "internalType": "uint32",
          "name": "publicSaleStartTime",
          "type": "uint32"
        },
        {
          "internalType": "uint64",
          "name": "mintlistPrice",
          "type": "uint64"
        },
        {
          "internalType": "uint64",
          "name": "publicPrice",
          "type": "uint64"
        },
        {
          "internalType": "uint32",
          "name": "publicSaleKey",
          "type": "uint32"
        }
      ],
      "stateMutability": "view",
      "type": "function"
    },
    {
      "inputs": [
        {
          "internalType": "address[]",
          "name": "addresses",
          "type": "address[]"
        },
        {
          "internalType": "uint256[]",
          "name": "numSlots",
          "type": "uint256[]"
        }
      ],
      "name": "seedAllowlist",
      "outputs": [],
      "stateMutability": "nonpayable",
      "type": "function"
    },
    {
      "inputs": [
        {
          "internalType": "address",
          "name": "operator",
          "type": "address"
        },
        {
          "internalType": "bool",
          "name": "approved",
          "type": "bool"
        }
      ],
      "name": "setApprovalForAll",
      "outputs": [],
      "stateMutability": "nonpayable",
      "type": "function"
    },
    {
      "inputs": [
        {
          "internalType": "uint32",
          "name": "timestamp",
          "type": "uint32"
        }
      ],
      "name": "setAuctionSaleStartTime",
      "outputs": [],
      "stateMutability": "nonpayable",
      "type": "function"
    },
    {
      "inputs": [
        {
          "internalType": "string",
          "name": "baseURI",
          "type": "string"
        }
      ],
      "name": "setBaseURI",
      "outputs": [],
      "stateMutability": "nonpayable",
      "type": "function"
    },
    {
      "inputs": [
        {
          "internalType": "uint256",
          "name": "quantity",
          "type": "uint256"
        }
      ],
      "name": "setOwnersExplicit",
      "outputs": [],
      "stateMutability": "nonpayable",
      "type": "function"
    },
    {
      "inputs": [
        {
          "internalType": "uint32",
          "name": "key",
          "type": "uint32"
        }
      ],
      "name": "setPublicSaleKey",
      "outputs": [],
      "stateMutability": "nonpayable",
      "type": "function"
    },
    {
      "inputs": [
        {
          "internalType": "bytes4",
          "name": "interfaceId",
          "type": "bytes4"
        }
      ],
      "name": "supportsInterface",
      "outputs": [
        {
          "internalType": "bool",
          "name": "",
          "type": "bool"
        }
      ],
      "stateMutability": "view",
      "type": "function"
    },
    {
      "inputs": [],
      "name": "symbol",
      "outputs": [
        {
          "internalType": "string",
          "name": "",
          "type": "string"
        }
      ],
      "stateMutability": "view",
      "type": "function"
    },
    {
      "inputs": [
        {
          "internalType": "uint256",
          "name": "index",
          "type": "uint256"
        }
      ],
      "name": "tokenByIndex",
      "outputs": [
        {
          "internalType": "uint256",
          "name": "",
          "type": "uint256"
        }
      ],
      "stateMutability": "view",
      "type": "function"
    },
    {
      "inputs": [
        {
          "internalType": "address",
          "name": "owner",
          "type": "address"
        },
        {
          "internalType": "uint256",
          "name": "index",
          "type": "uint256"
        }
      ],
      "name": "tokenOfOwnerByIndex",
      "outputs": [
        {
          "internalType": "uint256",
          "name": "",
          "type": "uint256"
        }
      ],
      "stateMutability": "view",
      "type": "function"
    },
    {
      "inputs": [
        {
          "internalType": "uint256",
          "name": "tokenId",
          "type": "uint256"
        }
      ],
      "name": "tokenURI",
      "outputs": [
        {
          "internalType": "string",
          "name": "",
          "type": "string"
        }
      ],
      "stateMutability": "view",
      "type": "function"
    },
    {
      "inputs": [],
      "name": "totalSupply",
      "outputs": [
        {
          "internalType": "uint256",
          "name": "",
          "type": "uint256"
        }
      ],
      "stateMutability": "view",
      "type": "function"
    },
    {
      "inputs": [
        {
          "internalType": "address",
          "name": "from",
          "type": "address"
        },
        {
          "internalType": "address",
          "name": "to",
          "type": "address"
        },
        {
          "internalType": "uint256",
          "name": "tokenId",
          "type": "uint256"
        }
      ],
      "name": "transferFrom",
      "outputs": [],
      "stateMutability": "nonpayable",
      "type": "function"
    },
    {
      "inputs": [
        {
          "internalType": "address",
          "name": "newOwner",
          "type": "address"
        }
      ],
      "name": "transferOwnership",
      "outputs": [],
      "stateMutability": "nonpayable",
      "type": "function"
    },
    {
      "inputs": [],
      "name": "withdrawMoney",
      "outputs": [],
      "stateMutability": "nonpayable",
      "type": "function"
    }
  ],
  "bytecode": "0x610120604052600060015560006008553480156200001c57600080fd5b5060405162003bb338038062003bb38339810160408190526200003f9162000259565b60405180604001604052806005815260200164417a756b6960d81b81525060405180604001604052806005815260200164415a554b4960d81b815250858562000097620000916200015f60201b60201c565b62000163565b60008111620000c35760405162461bcd60e51b8152600401620000ba906200030d565b60405180910390fd5b60008211620000e65760405162461bcd60e51b8152600401620000ba906200028f565b8351620000fb906002906020870190620001b3565b50825162000111906003906020860190620001b3565b5060a0919091526080525050600160095560c084905261010082905260e081905282821115620001555760405162461bcd60e51b8152600401620000ba90620002d6565b5050505062000398565b3390565b600080546001600160a01b038381166001600160a01b0319831681178455604051919092169283917f8be0079c531659141344cd1fd0a4f28419497f9722a3daafe3b4186f6b6457e09190a35050565b828054620001c1906200035b565b90600052602060002090601f016020900481019282620001e5576000855562000230565b82601f106200020057805160ff191683800117855562000230565b8280016001018555821562000230579182015b828111156200023057825182559160200191906001019062000213565b506200023e92915062000242565b5090565b5b808211156200023e576000815560010162000243565b600080600080608085870312156200026f578384fd5b505082516020840151604085015160609095015191969095509092509050565b60208082526027908201527f455243373231413a206d61782062617463682073697a65206d757374206265206040820152666e6f6e7a65726f60c81b606082015260800190565b6020808252601d908201527f6c617267657220636f6c6c656374696f6e2073697a65206e6565646564000000604082015260600190565b6020808252602e908201527f455243373231413a20636f6c6c656374696f6e206d757374206861766520612060408201526d6e6f6e7a65726f20737570706c7960901b606082015260800190565b6002810460018216806200037057607f821691505b602082108114156200039257634e487b7160e01b600052602260045260246000fd5b50919050565b60805160a05160c05160e051610100516137826200043160003960008181610ec6015261100d015260008181610c2201526118e0015260008181610f180152818161117d01526117b6015260008181610c7701528181610cc001528181610cf801528181611ec301528181611eed01526122dd015260008181610dab0152818161176401528181611ccd0152611cff01526137826000f3fe6080604052600436106102725760003560e01c8063715018a61161014f578063ac446002116100c1578063d7224ba01161007a578063d7224ba0146106f3578063dc33e68114610708578063e985e9c514610728578063f2fde38b14610748578063f8a987d814610768578063fbe1aa511461077d57610272565b8063ac44600214610656578063b05863d51461066b578063b88d4fde1461068b578063c87b56dd146106ab578063caf8a6d1146106cb578063cb91d8b3146106e057610272565b806390aa0b0f1161011357806390aa0b0f1461058e578063917d009e146105b45780639231ab2a146105d457806395d89b4114610601578063a22cb46514610616578063a7cd52cb1461063657610272565b8063715018a61461051a5780637a1c4a561461052f5780638bc35c2f146105445780638da5cb5b14610559578063900280831461056e57610272565b8063422030ba116101e85780635666c880116101ac5780635666c8801461047b57806359f369fe146104905780635cae01d3146104a55780636352211e146104ba5780636ebc5601146104da57806370a08231146104fa57610272565b8063422030ba146103e857806342842e0e146104085780634d3554c3146104285780634f6ccce71461043b57806355f804b31461045b57610272565b806318160ddd1161023a57806318160ddd1461033e57806323b872dd146103605780632d20fb60146103805780632f745c59146103a0578063375a069a146103c057806341fbddbd146103e057610272565b806301ffc9a71461027757806306fdde03146102ad578063081812fc146102cf578063095ea7b3146102fc57806316e6e15a1461031e575b600080fd5b34801561028357600080fd5b506102976102923660046128c6565b610792565b6040516102a49190612ad9565b60405180910390f35b3480156102b957600080fd5b506102c26107f5565b6040516102a49190612ae4565b3480156102db57600080fd5b506102ef6102ea36600461296a565b610887565b6040516102a49190612a88565b34801561030857600080fd5b5061031c6103173660046127e0565b6108d3565b005b34801561032a57600080fd5b5061031c6103393660046129e8565b61096c565b34801561034a57600080fd5b50610353610a5d565b6040516102a49190613508565b34801561036c57600080fd5b5061031c61037b3660046126b4565b610a63565b34801561038c57600080fd5b5061031c61039b36600461296a565b610a6e565b3480156103ac57600080fd5b506103536103bb3660046127e0565b610ae6565b3480156103cc57600080fd5b5061031c6103db36600461296a565b610be1565b61031c610d2e565b3480156103f457600080fd5b506102976104033660046129a3565b610e32565b34801561041457600080fd5b5061031c6104233660046126b4565b610e56565b61031c61043636600461296a565b610e71565b34801561044757600080fd5b5061035361045636600461296a565b610f94565b34801561046757600080fd5b5061031c6104763660046128fe565b610fc0565b34801561048757600080fd5b5061035361100b565b34801561049c57600080fd5b5061035361102f565b3480156104b157600080fd5b50610353611064565b3480156104c657600080fd5b506102ef6104d536600461296a565b61106a565b3480156104e657600080fd5b5061031c6104f53660046129ce565b61107c565b34801561050657600080fd5b50610353610515366004612668565b6110d7565b34801561052657600080fd5b5061031c611124565b34801561053b57600080fd5b5061035361116f565b34801561055057600080fd5b5061035361117b565b34801561056557600080fd5b506102ef61119f565b34801561057a57600080fd5b5061031c6105893660046129ce565b6111ae565b34801561059a57600080fd5b506105a3611213565b6040516102a4959493929190613511565b3480156105c057600080fd5b506103536105cf36600461296a565b611253565b3480156105e057600080fd5b506105f46105ef36600461296a565b6112fe565b6040516102a491906134df565b34801561060d57600080fd5b506102c261130f565b34801561062257600080fd5b5061031c6106313660046127a6565b61131e565b34801561064257600080fd5b50610353610651366004612668565b6113ec565b34801561066257600080fd5b5061031c6113fe565b34801561067757600080fd5b5061031c610686366004612809565b6114db565b34801561069757600080fd5b5061031c6106a63660046126ef565b6115d2565b3480156106b757600080fd5b506102c26106c636600461296a565b61160b565b3480156106d757600080fd5b5061035361168e565b61031c6106ee366004612982565b61169a565b3480156106ff57600080fd5b5061035361182b565b34801561071457600080fd5b50610353610723366004612668565b611831565b34801561073457600080fd5b50610297610743366004612682565b61183c565b34801561075457600080fd5b5061031c610763366004612668565b61186a565b34801561077457600080fd5b506103536118d8565b34801561078957600080fd5b506103536118de565b60006001600160e01b031982166380ac58cd60e01b14806107c357506001600160e01b03198216635b5e139f60e01b145b806107de57506001600160e01b0319821663780e9d6360e01b145b806107ed57506107ed82611902565b90505b919050565b6060600280546108049061368a565b80601f01602080910402602001604051908101604052809291908181526020018280546108309061368a565b801561087d5780601f106108525761010080835404028352916020019161087d565b820191906000526020600020905b81548152906001019060200180831161086057829003601f168201915b5050505050905090565b60006108928261191b565b6108b75760405162461bcd60e51b81526004016108ae90613408565b60405180910390fd5b506000908152600660205260409020546001600160a01b031690565b60006108de8261106a565b9050806001600160a01b0316836001600160a01b031614156109125760405162461bcd60e51b81526004016108ae906130a2565b806001600160a01b0316610924611922565b6001600160a01b03161480610940575061094081610743611922565b61095c5760405162461bcd60e51b81526004016108ae90612da1565b610967838383611926565b505050565b610974611922565b6001600160a01b031661098561119f565b6001600160a01b0316146109ab5760405162461bcd60e51b81526004016108ae90612f29565b6040805160a0810182526000815263ffffffff928316602082018190526001600160401b039586169282018390529390941660608501819052600a8054600160c01b808204909516608090970187905267ffffffffffffffff1916640100000000909502949094176fffffffffffffffff00000000000000001916600160401b9092029190911767ffffffffffffffff60801b1916600160801b9091021763ffffffff60c01b19169202919091179055565b60015490565b610967838383611982565b610a76611922565b6001600160a01b0316610a8761119f565b6001600160a01b031614610aad5760405162461bcd60e51b81526004016108ae90612f29565b60026009541415610ad05760405162461bcd60e51b81526004016108ae90613382565b6002600955610ade81611c8c565b506001600955565b6000610af1836110d7565b8210610b0f5760405162461bcd60e51b81526004016108ae90612af7565b6000610b19610a5d565b905060008060005b83811015610bc2576000818152600460209081526040918290208251808401909352546001600160a01b038116808452600160a01b9091046001600160401b03169183019190915215610b7357805192505b876001600160a01b0316836001600160a01b03161415610baf5786841415610ba157509350610bdb92505050565b83610bab816136c5565b9450505b5080610bba816136c5565b915050610b21565b5060405162461bcd60e51b81526004016108ae906132ee565b92915050565b610be9611922565b6001600160a01b0316610bfa61119f565b6001600160a01b031614610c205760405162461bcd60e51b81526004016108ae90612f29565b7f000000000000000000000000000000000000000000000000000000000000000081610c4a610a5d565b610c5491906135bd565b1115610c725760405162461bcd60e51b81526004016108ae90613239565b610c9c7f0000000000000000000000000000000000000000000000000000000000000000826136e0565b15610cb95760405162461bcd60e51b81526004016108ae90612bc9565b6000610ce57f0000000000000000000000000000000000000000000000000000000000000000836135d5565b905060005b8181101561096757610d1c337f0000000000000000000000000000000000000000000000000000000000000000611e16565b80610d26816136c5565b915050610cea565b323314610d4d5760405162461bcd60e51b81526004016108ae90612d6a565b600a54600160401b90046001600160401b031680610d7d5760405162461bcd60e51b81526004016108ae90613036565b336000908152600b6020526040902054610da95760405162461bcd60e51b81526004016108ae90612eac565b7f0000000000000000000000000000000000000000000000000000000000000000610dd2610a5d565b610ddd9060016135bd565b1115610dfb5760405162461bcd60e51b81526004016108ae90612e80565b336000908152600b60205260408120805491610e1683613673565b9190505550610e26336001611e16565b610e2f81611e34565b50565b60008315801590610e4257508215155b8015610e4e5750814210155b949350505050565b610967838383604051806020016040528060008152506115d2565b323314610e905760405162461bcd60e51b81526004016108ae90612d6a565b600a5463ffffffff168015801590610ea85750804210155b610ec45760405162461bcd60e51b81526004016108ae90612c9d565b7f000000000000000000000000000000000000000000000000000000000000000082610eee610a5d565b610ef891906135bd565b1115610f165760405162461bcd60e51b81526004016108ae90613280565b7f000000000000000000000000000000000000000000000000000000000000000082610f4133611831565b610f4b91906135bd565b1115610f695760405162461bcd60e51b81526004016108ae90613209565b600082610f7583611253565b610f7f91906135e9565b9050610f8b3384611e16565b61096781611e34565b6000610f9e610a5d565b8210610fbc5760405162461bcd60e51b81526004016108ae90612c15565b5090565b610fc8611922565b6001600160a01b0316610fd961119f565b6001600160a01b031614610fff5760405162461bcd60e51b81526004016108ae90612f29565b610967600c838361250e565b7f000000000000000000000000000000000000000000000000000000000000000081565b61103d6104b0614fb06135d5565b611057670214e8348c4f0000670de0b6b3a7640000613630565b61106191906135d5565b81565b6104b081565b600061107582611e92565b5192915050565b611084611922565b6001600160a01b031661109561119f565b6001600160a01b0316146110bb5760405162461bcd60e51b81526004016108ae90612f29565b600a805463ffffffff191663ffffffff92909216919091179055565b60006001600160a01b0382166110ff5760405162461bcd60e51b81526004016108ae90612e35565b506001600160a01b03166000908152600560205260409020546001600160801b031690565b61112c611922565b6001600160a01b031661113d61119f565b6001600160a01b0316146111635760405162461bcd60e51b81526004016108ae90612f29565b61116d6000611fa4565b565b670de0b6b3a764000081565b7f000000000000000000000000000000000000000000000000000000000000000081565b6000546001600160a01b031690565b6111b6611922565b6001600160a01b03166111c761119f565b6001600160a01b0316146111ed5760405162461bcd60e51b81526004016108ae90612f29565b600a805463ffffffff909216600160c01b0263ffffffff60c01b19909216919091179055565b600a5463ffffffff8082169164010000000081048216916001600160401b03600160401b8304811692600160801b810490911691600160c01b9091041685565b60008142101561126c5750670de0b6b3a76400006107f0565b614fb06112798342613630565b1061128d5750670214e8348c4f00006107f0565b60006104b061129c8442613630565b6112a691906135d5565b90506112b66104b0614fb06135d5565b6112d0670214e8348c4f0000670de0b6b3a7640000613630565b6112da91906135d5565b6112e490826135e9565b6112f690670de0b6b3a7640000613630565b9150506107f0565b61130661258e565b6107ed82611e92565b6060600380546108049061368a565b611326611922565b6001600160a01b0316826001600160a01b031614156113575760405162461bcd60e51b81526004016108ae90612fad565b8060076000611364611922565b6001600160a01b03908116825260208083019390935260409182016000908120918716808252919093529120805460ff1916921515929092179091556113a8611922565b6001600160a01b03167f17307eab39ab6107e8899845ad3d59bd9653f200f220920489ca2b5937696c31836040516113e09190612ad9565b60405180910390a35050565b600b6020526000908152604090205481565b611406611922565b6001600160a01b031661141761119f565b6001600160a01b03161461143d5760405162461bcd60e51b81526004016108ae90612f29565b600260095414156114605760405162461bcd60e51b81526004016108ae90613382565b60026009556040516000903390479061147890612a85565b60006040518083038185875af1925050503d80600081146114b5576040519150601f19603f3d011682016040523d82523d6000602084013e6114ba565b606091505b5050905080610ade5760405162461bcd60e51b81526004016108ae906130e4565b6114e3611922565b6001600160a01b03166114f461119f565b6001600160a01b03161461151a5760405162461bcd60e51b81526004016108ae90612f29565b805182511461153b5760405162461bcd60e51b81526004016108ae90613497565b60005b82518110156109675781818151811061156757634e487b7160e01b600052603260045260246000fd5b6020026020010151600b600085848151811061159357634e487b7160e01b600052603260045260246000fd5b60200260200101516001600160a01b03166001600160a01b031681526020019081526020016000208190555080806115ca906136c5565b91505061153e565b6115dd848484611982565b6115e984848484611ff4565b6116055760405162461bcd60e51b81526004016108ae9061310e565b50505050565b60606116168261191b565b6116325760405162461bcd60e51b81526004016108ae90612f5e565b600061163c61210f565b9050600081511161165c5760405180602001604052806000815250611687565b806116668461211e565b604051602001611677929190612a56565b6040516020818303038152906040525b9392505050565b670214e8348c4f000081565b3233146116b95760405162461bcd60e51b81526004016108ae90612d6a565b6040805160a081018252600a5463ffffffff808216835264010000000082048116602084018190526001600160401b03600160401b8404811695850195909552600160801b830490941660608401819052600160c01b9092041660808301819052919284831461173b5760405162461bcd60e51b81526004016108ae90612d25565b611746828483610e32565b6117625760405162461bcd60e51b81526004016108ae9061306b565b7f00000000000000000000000000000000000000000000000000000000000000008661178c610a5d565b61179691906135bd565b11156117b45760405162461bcd60e51b81526004016108ae90612e80565b7f0000000000000000000000000000000000000000000000000000000000000000866117df33611831565b6117e991906135bd565b11156118075760405162461bcd60e51b81526004016108ae90613209565b6118113387611e16565b61182361181e87846135e9565b611e34565b505050505050565b60085481565b60006107ed82612238565b6001600160a01b03918216600090815260076020908152604080832093909416825291909152205460ff1690565b611872611922565b6001600160a01b031661188361119f565b6001600160a01b0316146118a95760405162461bcd60e51b81526004016108ae90612f29565b6001600160a01b0381166118cf5760405162461bcd60e51b81526004016108ae90612b39565b610e2f81611fa4565b614fb081565b7f000000000000000000000000000000000000000000000000000000000000000081565b6001600160e01b031981166301ffc9a760e01b14919050565b6001541190565b3390565b60008281526006602052604080822080546001600160a01b0319166001600160a01b0387811691821790925591518593918516917f8c5be1e5ebec7d5bd14f71427d1e84f3dd0314c0f7b2291e5b200ac8c7c3b92591a4505050565b600061198d82611e92565b9050600081600001516001600160a01b03166119a7611922565b6001600160a01b031614806119dc57506119bf611922565b6001600160a01b03166119d184610887565b6001600160a01b0316145b806119f0575081516119f090610743611922565b905080611a0f5760405162461bcd60e51b81526004016108ae90612fe4565b846001600160a01b031682600001516001600160a01b031614611a445760405162461bcd60e51b81526004016108ae90612ee3565b6001600160a01b038416611a6a5760405162461bcd60e51b81526004016108ae90612c58565b611a778585856001611605565b611a876000848460000151611926565b6001600160a01b0385166000908152600560205260408120805460019290611ab99084906001600160801b0316613608565b82546101009290920a6001600160801b038181021990931691831602179091556001600160a01b03861660009081526005602052604081208054600194509092611b059185911661359b565b82546001600160801b039182166101009390930a9283029190920219909116179055506040805180820182526001600160a01b0380871682526001600160401b03428116602080850191825260008981526004909152948520935184549151909216600160a01b0267ffffffffffffffff60a01b19929093166001600160a01b03199091161716179055611b9a8460016135bd565b6000818152600460205260409020549091506001600160a01b0316611c3e57611bc28161191b565b15611c3e5760408051808201825284516001600160a01b0390811682526020808701516001600160401b0390811682850190815260008781526004909352949091209251835494516001600160a01b031990951692169190911767ffffffffffffffff60a01b1916600160a01b93909116929092029190911790555b83856001600160a01b0316876001600160a01b03167fddf252ad1be2c89b69c2b068fc378daa952ba7f163c4a11628f55a4df523b3ef60405160405180910390a46118238686866001611605565b60085481611cac5760405162461bcd60e51b81526004016108ae90612dfe565b60006001611cba84846135bd565b611cc49190613630565b9050611cf160017f0000000000000000000000000000000000000000000000000000000000000000613630565b811115611d2657611d2360017f0000000000000000000000000000000000000000000000000000000000000000613630565b90505b611d2f8161191b565b611d4b5760405162461bcd60e51b81526004016108ae9061333c565b815b818111611e02576000818152600460205260409020546001600160a01b0316611df0576000611d7b82611e92565b60408051808201825282516001600160a01b0390811682526020938401516001600160401b0390811685840190815260008881526004909652939094209151825493516001600160a01b031990941691161767ffffffffffffffff60a01b1916600160a01b9290931691909102919091179055505b80611dfa816136c5565b915050611d4d565b50611e0e8160016135bd565b600855505050565b611e3082826040518060200160405280600081525061228c565b5050565b80341015611e545760405162461bcd60e51b81526004016108ae90613161565b80341115610e2f57336108fc611e6a8334613630565b6040518115909202916000818181858888f19350505050158015611e30573d6000803e3d6000fd5b611e9a61258e565b611ea38261191b565b611ebf5760405162461bcd60e51b81526004016108ae90612b7f565b60007f00000000000000000000000000000000000000000000000000000000000000008310611f2057611f127f000000000000000000000000000000000000000000000000000000000000000084613630565b611f1d9060016135bd565b90505b825b818110611f8b576000818152600460209081526040918290208251808401909352546001600160a01b038116808452600160a01b9091046001600160401b03169183019190915215611f785792506107f0915050565b5080611f8381613673565b915050611f22565b5060405162461bcd60e51b81526004016108ae906133b9565b600080546001600160a01b038381166001600160a01b0319831681178455604051919092169283917f8be0079c531659141344cd1fd0a4f28419497f9722a3daafe3b4186f6b6457e09190a35050565b6000612008846001600160a01b03166124ff565b1561210457836001600160a01b031663150b7a02612024611922565b8786866040518563ffffffff1660e01b81526004016120469493929190612a9c565b602060405180830381600087803b15801561206057600080fd5b505af1925050508015612090575060408051601f3d908101601f1916820190925261208d918101906128e2565b60015b6120ea573d8080156120be576040519150601f19603f3d011682016040523d82523d6000602084013e6120c3565b606091505b5080516120e25760405162461bcd60e51b81526004016108ae9061310e565b805181602001fd5b6001600160e01b031916630a85bd0160e11b149050610e4e565b506001949350505050565b6060600c80546108049061368a565b60608161214357506040805180820190915260018152600360fc1b60208201526107f0565b8160005b811561216d5780612157816136c5565b91506121669050600a836135d5565b9150612147565b6000816001600160401b0381111561219557634e487b7160e01b600052604160045260246000fd5b6040519080825280601f01601f1916602001820160405280156121bf576020820181803683370190505b5090505b8415610e4e576121d4600183613630565b91506121e1600a866136e0565b6121ec9060306135bd565b60f81b81838151811061220f57634e487b7160e01b600052603260045260246000fd5b60200101906001600160f81b031916908160001a905350612231600a866135d5565b94506121c3565b60006001600160a01b0382166122605760405162461bcd60e51b81526004016108ae90612cd4565b506001600160a01b0316600090815260056020526040902054600160801b90046001600160801b031690565b6001546001600160a01b0384166122b55760405162461bcd60e51b81526004016108ae906131c8565b6122be8161191b565b156122db5760405162461bcd60e51b81526004016108ae90613191565b7f000000000000000000000000000000000000000000000000000000000000000083111561231b5760405162461bcd60e51b81526004016108ae90613455565b6123286000858386611605565b6001600160a01b0384166000908152600560209081526040918290208251808401845290546001600160801b038082168352600160801b909104169181019190915281518083019092528051909190819061238490879061359b565b6001600160801b031681526020018583602001516123a2919061359b565b6001600160801b039081169091526001600160a01b03808816600081815260056020908152604080832087518154988401518816600160801b029088166fffffffffffffffffffffffffffffffff199099169890981790961696909617909455845180860186529182526001600160401b034281168386019081528883526004909552948120915182549451909516600160a01b0267ffffffffffffffff60a01b19959093166001600160a01b031990941693909317939093161790915582905b858110156124ec5760405182906001600160a01b038916906000907fddf252ad1be2c89b69c2b068fc378daa952ba7f163c4a11628f55a4df523b3ef908290a46124b06000888488611ff4565b6124cc5760405162461bcd60e51b81526004016108ae9061310e565b816124d6816136c5565b92505080806124e4906136c5565b915050612463565b5060018190556118236000878588611605565b6001600160a01b03163b151590565b82805461251a9061368a565b90600052602060002090601f01602090048101928261253c5760008555612582565b82601f106125555782800160ff19823516178555612582565b82800160010185558215612582579182015b82811115612582578235825591602001919060010190612567565b50610fbc9291506125a5565b604080518082019091526000808252602082015290565b5b80821115610fbc57600081556001016125a6565b80356001600160a01b03811681146107f057600080fd5b600082601f8301126125e1578081fd5b813560206125f66125f183613578565b613548565b8281528181019085830183850287018401881015612612578586fd5b855b8581101561263057813584529284019290840190600101612614565b5090979650505050505050565b803563ffffffff811681146107f057600080fd5b80356001600160401b03811681146107f057600080fd5b600060208284031215612679578081fd5b611687826125ba565b60008060408385031215612694578081fd5b61269d836125ba565b91506126ab602084016125ba565b90509250929050565b6000806000606084860312156126c8578081fd5b6126d1846125ba565b92506126df602085016125ba565b9150604084013590509250925092565b60008060008060808587031215612704578081fd5b61270d856125ba565b9350602061271c8187016125ba565b93506040860135925060608601356001600160401b038082111561273e578384fd5b818801915088601f830112612751578384fd5b81358181111561276357612763613720565b612775601f8201601f19168501613548565b9150808252898482850101111561278a578485fd5b8084840185840137810190920192909252939692955090935050565b600080604083850312156127b8578182fd5b6127c1836125ba565b9150602083013580151581146127d5578182fd5b809150509250929050565b600080604083850312156127f2578182fd5b6127fb836125ba565b946020939093013593505050565b6000806040838503121561281b578182fd5b82356001600160401b0380821115612831578384fd5b818501915085601f830112612844578384fd5b813560206128546125f183613578565b82815281810190858301838502870184018b1015612870578889fd5b8896505b8487101561289957612885816125ba565b835260019690960195918301918301612874565b50965050860135925050808211156128af578283fd5b506128bc858286016125d1565b9150509250929050565b6000602082840312156128d7578081fd5b813561168781613736565b6000602082840312156128f3578081fd5b815161168781613736565b60008060208385031215612910578081fd5b82356001600160401b0380821115612926578283fd5b818501915085601f830112612939578283fd5b813581811115612947578384fd5b866020828501011115612958578384fd5b60209290920196919550909350505050565b60006020828403121561297b578081fd5b5035919050565b60008060408385031215612994578182fd5b50508035926020909101359150565b6000806000606084860312156129b7578081fd5b505081359360208301359350604090920135919050565b6000602082840312156129df578081fd5b6116878261263d565b6000806000606084860312156129fc578081fd5b612a0584612651565b9250612a1360208501612651565b9150612a216040850161263d565b90509250925092565b60008151808452612a42816020860160208601613647565b601f01601f19169290920160200192915050565b60008351612a68818460208801613647565b835190830190612a7c818360208801613647565b01949350505050565b90565b6001600160a01b0391909116815260200190565b6001600160a01b0385811682528416602082015260408101839052608060608201819052600090612acf90830184612a2a565b9695505050505050565b901515815260200190565b6000602082526116876020830184612a2a565b60208082526022908201527f455243373231413a206f776e657220696e646578206f7574206f6620626f756e604082015261647360f01b606082015260800190565b60208082526026908201527f4f776e61626c653a206e6577206f776e657220697320746865207a65726f206160408201526564647265737360d01b606082015260800190565b6020808252602a908201527f455243373231413a206f776e657220717565727920666f72206e6f6e657869736040820152693a32b73a103a37b5b2b760b11b606082015260800190565b6020808252602c908201527f63616e206f6e6c79206d696e742061206d756c7469706c65206f66207468652060408201526b6d6178426174636853697a6560a01b606082015260800190565b60208082526023908201527f455243373231413a20676c6f62616c20696e646578206f7574206f6620626f756040820152626e647360e81b606082015260800190565b60208082526025908201527f455243373231413a207472616e7366657220746f20746865207a65726f206164604082015264647265737360d81b606082015260800190565b60208082526018908201527f73616c6520686173206e6f742073746172746564207965740000000000000000604082015260600190565b60208082526031908201527f455243373231413a206e756d626572206d696e74656420717565727920666f7260408201527020746865207a65726f206164647265737360781b606082015260800190565b60208082526025908201527f63616c6c6564207769746820696e636f7272656374207075626c69632073616c60408201526465206b657960d81b606082015260800190565b6020808252601e908201527f5468652063616c6c657220697320616e6f7468657220636f6e74726163740000604082015260600190565b60208082526039908201527f455243373231413a20617070726f76652063616c6c6572206973206e6f74206f60408201527f776e6572206e6f7220617070726f76656420666f7220616c6c00000000000000606082015260800190565b60208082526018908201527f7175616e74697479206d757374206265206e6f6e7a65726f0000000000000000604082015260600190565b6020808252602b908201527f455243373231413a2062616c616e636520717565727920666f7220746865207a60408201526a65726f206164647265737360a81b606082015260800190565b60208082526012908201527172656163686564206d617820737570706c7960701b604082015260600190565b6020808252601f908201527f6e6f7420656c696769626c6520666f7220616c6c6f776c697374206d696e7400604082015260600190565b60208082526026908201527f455243373231413a207472616e736665722066726f6d20696e636f72726563746040820152651037bbb732b960d11b606082015260800190565b6020808252818101527f4f776e61626c653a2063616c6c6572206973206e6f7420746865206f776e6572604082015260600190565b6020808252602f908201527f4552433732314d657461646174613a2055524920717565727920666f72206e6f60408201526e3732bc34b9ba32b73a103a37b5b2b760891b606082015260800190565b6020808252601a908201527f455243373231413a20617070726f766520746f2063616c6c6572000000000000604082015260600190565b60208082526032908201527f455243373231413a207472616e736665722063616c6c6572206973206e6f74206040820152711bdddb995c881b9bdc88185c1c1c9bdd995960721b606082015260800190565b6020808252818101527f616c6c6f776c6973742073616c6520686173206e6f7420626567756e20796574604082015260600190565b6020808252601d908201527f7075626c69632073616c6520686173206e6f7420626567756e20796574000000604082015260600190565b60208082526022908201527f455243373231413a20617070726f76616c20746f2063757272656e74206f776e60408201526132b960f11b606082015260800190565b60208082526010908201526f2a3930b739b332b9103330b4b632b21760811b604082015260600190565b60208082526033908201527f455243373231413a207472616e7366657220746f206e6f6e204552433732315260408201527232b1b2b4bb32b91034b6b83632b6b2b73a32b960691b606082015260800190565b6020808252601690820152752732b2b2103a379039b2b7321036b7b9329022aa241760511b604082015260600190565b6020808252601d908201527f455243373231413a20746f6b656e20616c7265616479206d696e746564000000604082015260600190565b60208082526021908201527f455243373231413a206d696e7420746f20746865207a65726f206164647265736040820152607360f81b606082015260800190565b60208082526016908201527563616e206e6f74206d696e742074686973206d616e7960501b604082015260600190565b60208082526027908201527f746f6f206d616e7920616c7265616479206d696e746564206265666f72652064604082015266195d881b5a5b9d60ca1b606082015260800190565b60208082526048908201527f6e6f7420656e6f7567682072656d61696e696e6720726573657276656420666f60408201527f722061756374696f6e20746f20737570706f72742064657369726564206d696e6060820152671d08185b5bdd5b9d60c21b608082015260a00190565b6020808252602e908201527f455243373231413a20756e61626c6520746f2067657420746f6b656e206f662060408201526d0deeedccae440c4f240d2dcc8caf60931b606082015260800190565b60208082526026908201527f6e6f7420656e6f756768206d696e7465642079657420666f722074686973206360408201526506c65616e75760d41b606082015260800190565b6020808252601f908201527f5265656e7472616e637947756172643a207265656e7472616e742063616c6c00604082015260600190565b6020808252602f908201527f455243373231413a20756e61626c6520746f2064657465726d696e652074686560408201526e1037bbb732b91037b3103a37b5b2b760891b606082015260800190565b6020808252602d908201527f455243373231413a20617070726f76656420717565727920666f72206e6f6e6560408201526c3c34b9ba32b73a103a37b5b2b760991b606082015260800190565b60208082526022908201527f455243373231413a207175616e7469747920746f206d696e7420746f6f2068696040820152610ced60f31b606082015260800190565b60208082526028908201527f61646472657373657320646f6573206e6f74206d61746368206e756d536c6f746040820152670e640d8cadccee8d60c31b606082015260800190565b81516001600160a01b031681526020918201516001600160401b03169181019190915260400190565b90815260200190565b63ffffffff958616815293851660208501526001600160401b03928316604085015291166060830152909116608082015260a00190565b604051601f8201601f191681016001600160401b038111828210171561357057613570613720565b604052919050565b60006001600160401b0382111561359157613591613720565b5060209081020190565b60006001600160801b03808316818516808303821115612a7c57612a7c6136f4565b600082198211156135d0576135d06136f4565b500190565b6000826135e4576135e461370a565b500490565b6000816000190483118215151615613603576136036136f4565b500290565b60006001600160801b0383811690831681811015613628576136286136f4565b039392505050565b600082821015613642576136426136f4565b500390565b60005b8381101561366257818101518382015260200161364a565b838111156116055750506000910152565b600081613682576136826136f4565b506000190190565b60028104600182168061369e57607f821691505b602082108114156136bf57634e487b7160e01b600052602260045260246000fd5b50919050565b60006000198214156136d9576136d96136f4565b5060010190565b6000826136ef576136ef61370a565b500690565b634e487b7160e01b600052601160045260246000fd5b634e487b7160e01b600052601260045260246000fd5b634e487b7160e01b600052604160045260246000fd5b6001600160e01b031981168114610e2f57600080fdfea2646970667358221220465191434dca4602d79993ed36d773191e9d51a421ab89c6a580d8281c00986764736f6c63430008010033",
  "linkReferences": {},
  "deployedLinkReferences": {}
}