{
  "_format": "hh-sol-artifact-1",
  "contractName": "SchemesOfInk",
  "sourceName": "contracts/SchemesOfInk.sol",
  "abi": [
    {
      "inputs": [],
      "stateMutability": "nonpayable",
      "type": "constructor"
    },
    {
      "anonymous": false,
      "inputs": [
        {
          "indexed": true,
          "internalType": "address",
          "name": "owner",
          "type": "address"
        },
        {
          "indexed": true,
          "internalType": "address",
          "name": "approved",
          "type": "address"
        },
        {
          "indexed": true,
          "internalType": "uint256",
          "name": "tokenId",
          "type": "uint256"
        }
      ],
      "name": "Approval",
      "type": "event"
    },
    {
      "anonymous": false,
      "inputs": [
        {
          "indexed": true,
          "internalType": "address",
          "name": "owner",
          "type": "address"
        },
        {
          "indexed": true,
          "internalType": "address",
          "name": "operator",
          "type": "address"
        },
        {
          "indexed": false,
          "internalType": "bool",
          "name": "approved",
          "type": "bool"
        }
      ],
      "name": "ApprovalForAll",
      "type": "event"
    },
    {
      "anonymous": false,
      "inputs": [
        {
          "indexed": false,
          "internalType": "uint256",
          "name": "oldPrice",
          "type": "uint256"
        },
        {
          "indexed": false,
          "internalType": "uint256",
          "name": "newPrice",
          "type": "uint256"
        }
      ],
      "name": "ChangedMaxSupply",
      "type": "event"
    },
    {
      "anonymous": false,
      "inputs": [
        {
          "indexed": false,
          "internalType": "uint256",
          "name": "oldPrice",
          "type": "uint256"
        },
        {
          "indexed": false,
          "internalType": "uint256",
          "name": "newPrice",
          "type": "uint256"
        }
      ],
      "name": "ChangedPrice",
      "type": "event"
    },
    {
      "anonymous": false,
      "inputs": [
        {
          "indexed": true,
          "internalType": "address",
          "name": "previousOwner",
          "type": "address"
        },
        {
          "indexed": true,
          "internalType": "address",
          "name": "newOwner",
          "type": "address"
        }
      ],
      "name": "OwnershipTransferred",
      "type": "event"
    },
    {
      "anonymous": false,
      "inputs": [
        {
          "indexed": true,
          "internalType": "address",
          "name": "from",
          "type": "address"
        },
        {
          "indexed": true,
          "internalType": "address",
          "name": "to",
          "type": "address"
        },
        {
          "indexed": true,
          "internalType": "uint256",
          "name": "tokenId",
          "type": "uint256"
        }
      ],
      "name": "Transfer",
      "type": "event"
    },
    {
      "inputs": [],
      "name": "SALE_IS_ACTIVE",
      "outputs": [
        {
          "internalType": "bool",
          "name": "",
          "type": "bool"
        }
      ],
      "stateMutability": "view",
      "type": "function"
    },
    {
      "inputs": [
        {
          "internalType": "address",
          "name": "to",
          "type": "address"
        },
        {
          "internalType": "uint256",
          "name": "tokenId",
          "type": "uint256"
        }
      ],
      "name": "approve",
      "outputs": [],
      "stateMutability": "nonpayable",
      "type": "function"
    },
    {
      "inputs": [
        {
          "internalType": "address",
          "name": "owner",
          "type": "address"
        }
      ],
      "name": "balanceOf",
      "outputs": [
        {
          "internalType": "uint256",
          "name": "",
          "type": "uint256"
        }
      ],
      "stateMutability": "view",
      "type": "function"
    },
    {
      "inputs": [
        {
          "internalType": "uint256",
          "name": "newMaxSupply",
          "type": "uint256"
        }
      ],
      "name": "changeMaxSupply",
      "outputs": [],
      "stateMutability": "nonpayable",
      "type": "function"
    },
    {
      "inputs": [
        {
          "internalType": "uint256",
          "name": "newPrice",
          "type": "uint256"
        }
      ],
      "name": "changePrice",
      "outputs": [],
      "stateMutability": "nonpayable",
      "type": "function"
    },
    {
      "inputs": [],
      "name": "flipSaleState",
      "outputs": [],
      "stateMutability": "nonpayable",
      "type": "function"
    },
    {
      "inputs": [
        {
          "internalType": "uint256",
          "name": "tokenId",
          "type": "uint256"
        }
      ],
      "name": "getApproved",
      "outputs": [
        {
          "internalType": "address",
          "name": "",
          "type": "address"
        }
      ],
      "stateMutability": "view",
      "type": "function"
    },
    {
      "inputs": [
        {
          "internalType": "address",
          "name": "owner",
          "type": "address"
        },
        {
          "internalType": "address",
          "name": "operator",
          "type": "address"
        }
      ],
      "name": "isApprovedForAll",
      "outputs": [
        {
          "internalType": "bool",
          "name": "",
          "type": "bool"
        }
      ],
      "stateMutability": "view",
      "type": "function"
    },
    {
      "inputs": [],
      "name": "maxSupply",
      "outputs": [
        {
          "internalType": "uint256",
          "name": "",
          "type": "uint256"
        }
      ],
      "stateMutability": "view",
      "type": "function"
    },
    {
      "inputs": [
        {
          "internalType": "uint256",
          "name": "nMints",
          "type": "uint256"
        }
      ],
      "name": "mint",
      "outputs": [],
      "stateMutability": "payable",
      "type": "function"
    },
    {
      "inputs": [],
      "name": "name",
      "outputs": [
        {
          "internalType": "string",
          "name": "",
          "type": "string"
        }
      ],
      "stateMutability": "view",
      "type": "function"
    },
    {
      "inputs": [],
      "name": "nftPrice",
      "outputs": [
        {
          "internalType": "uint256",
          "name": "",
          "type": "uint256"
        }
      ],
      "stateMutability": "view",
      "type": "function"
    },
    {
      "inputs": [],
      "name": "owner",
      "outputs": [
        {
          "internalType": "address",
          "name": "",
          "type": "address"
        }
      ],
      "stateMutability": "view",
      "type": "function"
    },
    {
      "inputs": [
        {
          "internalType": "uint256",
          "name": "tokenId",
          "type": "uint256"
        }
      ],
      "name": "ownerOf",
      "outputs": [
        {
          "internalType": "address",
          "name": "",
          "type": "address"
        }
      ],
      "stateMutability": "view",
      "type": "function"
    },
    {
      "inputs": [],
      "name": "renounceOwnership",
      "outputs": [],
      "stateMutability": "nonpayable",
      "type": "function"
    },
    {
      "inputs": [
        {
          "internalType": "address",
          "name": "from",
          "type": "address"
        },
        {
          "internalType": "address",
          "name": "to",
          "type": "address"
        },
        {
          "internalType": "uint256",
          "name": "tokenId",
          "type": "uint256"
        }
      ],
      "name": "safeTransferFrom",
      "outputs": [],
      "stateMutability": "nonpayable",
      "type": "function"
    },
    {
      "inputs": [
        {
          "internalType": "address",
          "name": "from",
          "type": "address"
        },
        {
          "internalType": "address",
          "name": "to",
          "type": "address"
        },
        {
          "internalType": "uint256",
          "name": "tokenId",
          "type": "uint256"
        },
        {
          "internalType": "bytes",
          "name": "_data",
          "type": "bytes"
        }
      ],
      "name": "safeTransferFrom",
      "outputs": [],
      "stateMutability": "nonpayable",
      "type": "function"
    },
    {
      "inputs": [
        {
          "internalType": "address",
          "name": "operator",
          "type": "address"
        },
        {
          "internalType": "bool",
          "name": "approved",
          "type": "bool"
        }
      ],
      "name": "setApprovalForAll",
      "outputs": [],
      "stateMutability": "nonpayable",
      "type": "function"
    },
    {
      "inputs": [
        {
          "internalType": "string",
          "name": "baseURI_",
          "type": "string"
        }
      ],
      "name": "setBaseURI",
      "outputs": [],
      "stateMutability": "nonpayable",
      "type": "function"
    },
    {
      "inputs": [
        {
          "internalType": "bytes4",
          "name": "interfaceId",
          "type": "bytes4"
        }
      ],
      "name": "supportsInterface",
      "outputs": [
        {
          "internalType": "bool",
          "name": "",
          "type": "bool"
        }
      ],
      "stateMutability": "view",
      "type": "function"
    },
    {
      "inputs": [],
      "name": "symbol",
      "outputs": [
        {
          "internalType": "string",
          "name": "",
          "type": "string"
        }
      ],
      "stateMutability": "view",
      "type": "function"
    },
    {
      "inputs": [
        {
          "internalType": "uint256",
          "name": "index",
          "type": "uint256"
        }
      ],
      "name": "tokenByIndex",
      "outputs": [
        {
          "internalType": "uint256",
          "name": "",
          "type": "uint256"
        }
      ],
      "stateMutability": "view",
      "type": "function"
    },
    {
      "inputs": [
        {
          "internalType": "address",
          "name": "owner",
          "type": "address"
        },
        {
          "internalType": "uint256",
          "name": "index",
          "type": "uint256"
        }
      ],
      "name": "tokenOfOwnerByIndex",
      "outputs": [
        {
          "internalType": "uint256",
          "name": "",
          "type": "uint256"
        }
      ],
      "stateMutability": "view",
      "type": "function"
    },
    {
      "inputs": [
        {
          "internalType": "uint256",
          "name": "tokenId",
          "type": "uint256"
        }
      ],
      "name": "tokenURI",
      "outputs": [
        {
          "internalType": "string",
          "name": "",
          "type": "string"
        }
      ],
      "stateMutability": "view",
      "type": "function"
    },
    {
      "inputs": [],
      "name": "totalSupply",
      "outputs": [
        {
          "internalType": "uint256",
          "name": "",
          "type": "uint256"
        }
      ],
      "stateMutability": "view",
      "type": "function"
    },
    {
      "inputs": [
        {
          "internalType": "address",
          "name": "from",
          "type": "address"
        },
        {
          "internalType": "address",
          "name": "to",
          "type": "address"
        },
        {
          "internalType": "uint256",
          "name": "tokenId",
          "type": "uint256"
        }
      ],
      "name": "transferFrom",
      "outputs": [],
      "stateMutability": "nonpayable",
      "type": "function"
    },
    {
      "inputs": [
        {
          "internalType": "address",
          "name": "newOwner",
          "type": "address"
        }
      ],
      "name": "transferOwnership",
      "outputs": [],
      "stateMutability": "nonpayable",
      "type": "function"
    },
    {
      "inputs": [],
      "name": "withdrawAll",
      "outputs": [],
      "stateMutability": "nonpayable",
      "type": "function"
    },
    {
      "stateMutability": "payable",
      "type": "receive"
    }
  ],
  "bytecode": "0x60806040527f1eabc259bf80bdb486eaf645007496fb9aa7ae25de9ceed19d6a2e3efc9509686001556115b3600b556703782dace9d90000600c55600d805460ff191690553480156200005157600080fd5b506040518060400160405280600e81526020016d536368656d6573204f6620496e6b60901b81525060405180604001604052806003815260200162534f4960e81b8152508160039080519060200190620000ad92919062000141565b508051620000c390600490602084019062000141565b505050620000e0620000da620000eb60201b60201c565b620000ef565b6001600a5562000224565b3390565b600980546001600160a01b038381166001600160a01b0319831681179093556040519116919082907f8be0079c531659141344cd1fd0a4f28419497f9722a3daafe3b4186f6b6457e090600090a35050565b8280546200014f90620001e7565b90600052602060002090601f016020900481019282620001735760008555620001be565b82601f106200018e57805160ff1916838001178555620001be565b82800160010185558215620001be579182015b82811115620001be578251825591602001919060010190620001a1565b50620001cc929150620001d0565b5090565b5b80821115620001cc5760008155600101620001d1565b600281046001821680620001fc57607f821691505b602082108114156200021e57634e487b7160e01b600052602260045260246000fd5b50919050565b6125a980620002346000396000f3fe6080604052600436106101bb5760003560e01c80636352211e116100ec578063a22cb4651161008a578063c87b56dd11610064578063c87b56dd14610496578063d5abeb01146104b6578063e985e9c5146104cb578063f2fde38b146104eb576101c2565b8063a22cb46514610436578063a2b40d1914610456578063b88d4fde14610476576101c2565b8063853828b6116100c6578063853828b6146103e45780638da5cb5b146103f957806395d89b411461040e578063a0712d6814610423576101c2565b80636352211e1461038f57806370a08231146103af578063715018a6146103cf576101c2565b806323b872dd11610159578063404c7cdd11610133578063404c7cdd1461030f57806342842e0e1461032f5780634f6ccce71461034f57806355f804b31461036f576101c2565b806323b872dd146102ba5780632f745c59146102da57806334918dfd146102fa576101c2565b8063081812fc11610195578063081812fc14610234578063095ea7b3146102615780630d39fc811461028357806318160ddd146102a5576101c2565b806301ffc9a7146101c757806306eda1b5146101fd57806306fdde0314610212576101c2565b366101c257005b600080fd5b3480156101d357600080fd5b506101e76101e2366004611c55565b61050b565b6040516101f49190611dee565b60405180910390f35b34801561020957600080fd5b506101e761056e565b34801561021e57600080fd5b50610227610577565b6040516101f49190611df9565b34801561024057600080fd5b5061025461024f366004611cfa565b610609565b6040516101f49190611d9d565b34801561026d57600080fd5b5061028161027c366004611c2c565b610655565b005b34801561028f57600080fd5b506102986106ee565b6040516101f4919061240c565b3480156102b157600080fd5b506102986106f4565b3480156102c657600080fd5b506102816102d5366004611aeb565b6106fa565b3480156102e657600080fd5b506102986102f5366004611c2c565b610705565b34801561030657600080fd5b506102816107f0565b34801561031b57600080fd5b5061028161032a366004611cfa565b6108cc565b34801561033b57600080fd5b5061028161034a366004611aeb565b6109bd565b34801561035b57600080fd5b5061029861036a366004611cfa565b6109d8565b34801561037b57600080fd5b5061028161038a366004611c8d565b610a04565b34801561039b57600080fd5b506102546103aa366004611cfa565b610abb565b3480156103bb57600080fd5b506102986103ca366004611a9f565b610acd565b3480156103db57600080fd5b50610281610b1a565b3480156103f057600080fd5b50610281610bd1565b34801561040557600080fd5b50610254610caa565b34801561041a57600080fd5b50610227610cb9565b610281610431366004611cfa565b610cc8565b34801561044257600080fd5b50610281610451366004611bf2565b610d55565b34801561046257600080fd5b50610281610471366004611cfa565b610e23565b34801561048257600080fd5b50610281610491366004611b26565b610f08565b3480156104a257600080fd5b506102276104b1366004611cfa565b610f41565b3480156104c257600080fd5b50610298610fdd565b3480156104d757600080fd5b506101e76104e6366004611ab9565b610fe3565b3480156104f757600080fd5b50610281610506366004611a9f565b611011565b60006001600160e01b031982166380ac58cd60e01b148061053c57506001600160e01b03198216635b5e139f60e01b145b8061055757506001600160e01b0319821663780e9d6360e01b145b806105665750610566826110eb565b90505b919050565b600d5460ff1681565b606060038054610586906124b1565b80601f01602080910402602001604051908101604052809291908181526020018280546105b2906124b1565b80156105ff5780601f106105d4576101008083540402835291602001916105ff565b820191906000526020600020905b8154815290600101906020018083116105e257829003601f168201915b5050505050905090565b600061061482611104565b6106395760405162461bcd60e51b8152600401610630906123bf565b60405180910390fd5b506000908152600760205260409020546001600160a01b031690565b600061066082610abb565b9050806001600160a01b0316836001600160a01b031614156106945760405162461bcd60e51b815260040161063090612229565b806001600160a01b03166106a661110b565b6001600160a01b031614806106c257506106c2816104e661110b565b6106de5760405162461bcd60e51b815260040161063090612002565b6106e983838361110f565b505050565b600c5481565b60025490565b6106e983838361116b565b600061071083610acd565b821061072e5760405162461bcd60e51b815260040161063090611e0c565b60006107386106f4565b905060008060005b838110156107d1576000818152600560209081526040918290208251808401909352546001600160a01b038116808452600160a01b90910467ffffffffffffffff16918301919091521561079357805192505b876001600160a01b0316836001600160a01b031614156107c857868414156107c1575093506107ea92505050565b6001909301925b50600101610740565b5060405162461bcd60e51b815260040161063090612371565b92915050565b6107f861110b565b6001600160a01b0316610809610caa565b6001600160a01b0316148061089c575061089c600080548060200260200160405190810160405280929190818152602001828054801561086857602002820191906000526020600020905b815481526020019060010190808311610854575b5050505050600154336040516020016108819190611d3e565b604051602081830303815290604052805190602001206113d8565b6108b85760405162461bcd60e51b81526004016106309061211c565b600d805460ff19811660ff90911615179055565b6108d461110b565b6001600160a01b03166108e5610caa565b6001600160a01b0316148061095b575061095b60008054806020026020016040519081016040528092919081815260200182805480156108685760200282019190600052602060002090815481526020019060010190808311610854575050505050600154336040516020016108819190611d3e565b6109775760405162461bcd60e51b81526004016106309061211c565b600b8054908290556040517f2d267902ea4f398530632960a45ada5401b223ca425d099ef97af0f5f5d1633a906109b19083908590612415565b60405180910390a15050565b6106e983838360405180602001604052806000815250610f08565b60006109e26106f4565b8210610a005760405162461bcd60e51b815260040161063090611f15565b5090565b610a0c61110b565b6001600160a01b0316610a1d610caa565b6001600160a01b03161480610a935750610a9360008054806020026020016040519081016040528092919081815260200182805480156108685760200282019190600052602060002090815481526020019060010190808311610854575050505050600154336040516020016108819190611d3e565b610aaf5760405162461bcd60e51b81526004016106309061211c565b6106e9600e83836119dc565b6000610ac6826113ee565b5192915050565b60006001600160a01b038216610af55760405162461bcd60e51b81526004016106309061208b565b506001600160a01b03166000908152600660205260409020546001600160801b031690565b610b2261110b565b6001600160a01b0316610b33610caa565b6001600160a01b03161480610ba95750610ba960008054806020026020016040519081016040528092919081815260200182805480156108685760200282019190600052602060002090815481526020019060010190808311610854575050505050600154336040516020016108819190611d3e565b610bc55760405162461bcd60e51b81526004016106309061211c565b610bcf6000611476565b565b610bd961110b565b6001600160a01b0316610bea610caa565b6001600160a01b03161480610c605750610c6060008054806020026020016040519081016040528092919081815260200182805480156108685760200282019190600052602060002090815481526020019060010190808311610854575050505050600154336040516020016108819190611d3e565b610c7c5760405162461bcd60e51b81526004016106309061211c565b60004711610c9c5760405162461bcd60e51b815260040161063090611fd4565b47610ca733826114c8565b50565b6009546001600160a01b031690565b606060048054610586906124b1565b600d5460ff16610cea5760405162461bcd60e51b815260040161063090611e4e565b600b5481610cf66106f4565b610d009190612423565b1115610d1e5760405162461bcd60e51b81526004016106309061205f565b3481600c54610d2d919061244f565b1115610d4b5760405162461bcd60e51b815260040161063090611f9d565b610ca73382611544565b610d5d61110b565b6001600160a01b0316826001600160a01b03161415610d8e5760405162461bcd60e51b8152600401610630906121a0565b8060086000610d9b61110b565b6001600160a01b03908116825260208083019390935260409182016000908120918716808252919093529120805460ff191692151592909217909155610ddf61110b565b6001600160a01b03167f17307eab39ab6107e8899845ad3d59bd9653f200f220920489ca2b5937696c3183604051610e179190611dee565b60405180910390a35050565b610e2b61110b565b6001600160a01b0316610e3c610caa565b6001600160a01b03161480610eb25750610eb260008054806020026020016040519081016040528092919081815260200182805480156108685760200282019190600052602060002090815481526020019060010190808311610854575050505050600154336040516020016108819190611d3e565b610ece5760405162461bcd60e51b81526004016106309061211c565b600c8054908290556040517f8d41eafd4a0911818359bda81daed68115ba0312f42a7098075150da886cd0a4906109b19083908590612415565b610f1384848461116b565b610f1f84848484611562565b610f3b5760405162461bcd60e51b815260040161063090612295565b50505050565b6060610f4c82611104565b610f685760405162461bcd60e51b815260040161063090612151565b6000610f7261167e565b9050805160001415610fa15760405180604001604052806005815260200164173539b7b760d91b815250610fd6565b80610fb5610fb0856001612423565b61168d565b604051602001610fc6929190611d5b565b6040516020818303038152906040525b9392505050565b600b5481565b6001600160a01b03918216600090815260086020908152604080832093909416825291909152205460ff1690565b61101961110b565b6001600160a01b031661102a610caa565b6001600160a01b031614806110a057506110a060008054806020026020016040519081016040528092919081815260200182805480156108685760200282019190600052602060002090815481526020019060010190808311610854575050505050600154336040516020016108819190611d3e565b6110bc5760405162461bcd60e51b81526004016106309061211c565b6001600160a01b0381166110e25760405162461bcd60e51b815260040161063090611e85565b610ca781611476565b6001600160e01b031981166301ffc9a760e01b14919050565b6002541190565b3390565b60008281526007602052604080822080546001600160a01b0319166001600160a01b0387811691821790925591518593918516917f8c5be1e5ebec7d5bd14f71427d1e84f3dd0314c0f7b2291e5b200ac8c7c3b92591a4505050565b6000611176826113ee565b9050600081600001516001600160a01b031661119061110b565b6001600160a01b031614806111c557506111a861110b565b6001600160a01b03166111ba84610609565b6001600160a01b0316145b806111d9575081516111d9906104e661110b565b9050806111f85760405162461bcd60e51b8152600401610630906121d7565b846001600160a01b031682600001516001600160a01b03161461122d5760405162461bcd60e51b8152600401610630906120d6565b6001600160a01b0384166112535760405162461bcd60e51b815260040161063090611f58565b6112608585856001610f3b565b611270600084846000015161110f565b6001600160a01b03858116600090815260066020908152604080832080546001600160801b03198082166001600160801b03928316600019018316179092558986168086528386208054938416938316600190810190931693909317909255888552600590935281842080546001600160a01b03191690911767ffffffffffffffff60a01b1916600160a01b4267ffffffffffffffff16021790559086018083529120549091166113825761132481611104565b15611382578251600082815260056020908152604090912080549186015167ffffffffffffffff16600160a01b0267ffffffffffffffff60a01b196001600160a01b039094166001600160a01b031990931692909217929092161790555b5082846001600160a01b0316866001600160a01b03167fddf252ad1be2c89b69c2b068fc378daa952ba7f163c4a11628f55a4df523b3ef60405160405180910390a46113d18585856001610f3b565b5050505050565b6000826113e585846117a8565b14949350505050565b6113f6611a5c565b6113ff82611104565b61141b5760405162461bcd60e51b815260040161063090611ecb565b815b6000818152600560209081526040918290208251808401909352546001600160a01b038116808452600160a01b90910467ffffffffffffffff16918301919091521561146c5791506105699050565b506000190161141d565b600980546001600160a01b038381166001600160a01b0319831681179093556040519116919082907f8be0079c531659141344cd1fd0a4f28419497f9722a3daafe3b4186f6b6457e090600090a35050565b6000826001600160a01b0316826040516114e190611d9a565b60006040518083038185875af1925050503d806000811461151e576040519150601f19603f3d011682016040523d82523d6000602084013e611523565b606091505b50509050806106e95760405162461bcd60e51b81526004016106309061226b565b61155e828260405180602001604052806000815250611822565b5050565b6000611576846001600160a01b031661182f565b1561167257836001600160a01b031663150b7a0261159261110b565b8786866040518563ffffffff1660e01b81526004016115b49493929190611db1565b602060405180830381600087803b1580156115ce57600080fd5b505af19250505080156115fe575060408051601f3d908101601f191682019092526115fb91810190611c71565b60015b611658573d80801561162c576040519150601f19603f3d011682016040523d82523d6000602084013e611631565b606091505b5080516116505760405162461bcd60e51b815260040161063090612295565b805181602001fd5b6001600160e01b031916630a85bd0160e11b149050611676565b5060015b949350505050565b6060600e8054610586906124b1565b6060816116b257506040805180820190915260018152600360fc1b6020820152610569565b8160005b81156116dc57806116c6816124ec565b91506116d59050600a8361243b565b91506116b6565b60008167ffffffffffffffff81111561170557634e487b7160e01b600052604160045260246000fd5b6040519080825280601f01601f19166020018201604052801561172f576020820181803683370190505b5090505b84156116765761174460018361246e565b9150611751600a86612507565b61175c906030612423565b60f81b81838151811061177f57634e487b7160e01b600052603260045260246000fd5b60200101906001600160f81b031916908160001a9053506117a1600a8661243b565b9450611733565b600081815b845181101561181a5760008582815181106117d857634e487b7160e01b600052603260045260246000fd5b602002602001015190508083116117fa576117f38382611860565b9250611807565b6118048184611860565b92505b5080611812816124ec565b9150506117ad565b509392505050565b6106e9838383600161186f565b600080826001600160a01b0316803b806020016040519081016040528181526000908060200190933c511192915050565b60009182526020526040902090565b6002546001600160a01b0385166118985760405162461bcd60e51b8152600401610630906122e8565b836118b55760405162461bcd60e51b815260040161063090612329565b6118c26000868387610f3b565b6001600160a01b038516600081815260066020908152604080832080546001600160801b031981166001600160801b039182168b01821617808216600160801b9182900483168c01909216021790558483526005909152812080546001600160a01b03191690921767ffffffffffffffff60a01b1916600160a01b4267ffffffffffffffff16021790915581905b858110156119cb5760405182906001600160a01b038916906000907fddf252ad1be2c89b69c2b068fc378daa952ba7f163c4a11628f55a4df523b3ef908290a483156119bf576119a36000888488611562565b6119bf5760405162461bcd60e51b815260040161063090612295565b60019182019101611950565b506002556113d16000868387610f3b565b8280546119e8906124b1565b90600052602060002090601f016020900481019282611a0a5760008555611a50565b82601f10611a235782800160ff19823516178555611a50565b82800160010185558215611a50579182015b82811115611a50578235825591602001919060010190611a35565b50610a00929150611a73565b604080518082019091526000808252602082015290565b5b80821115610a005760008155600101611a74565b80356001600160a01b038116811461056957600080fd5b600060208284031215611ab0578081fd5b610fd682611a88565b60008060408385031215611acb578081fd5b611ad483611a88565b9150611ae260208401611a88565b90509250929050565b600080600060608486031215611aff578081fd5b611b0884611a88565b9250611b1660208501611a88565b9150604084013590509250925092565b60008060008060808587031215611b3b578081fd5b611b4485611a88565b93506020611b53818701611a88565b935060408601359250606086013567ffffffffffffffff80821115611b76578384fd5b818801915088601f830112611b89578384fd5b813581811115611b9b57611b9b612547565b604051601f8201601f1916810185018381118282101715611bbe57611bbe612547565b60405281815283820185018b1015611bd4578586fd5b81858501868301379081019093019390935250939692955090935050565b60008060408385031215611c04578182fd5b611c0d83611a88565b915060208301358015158114611c21578182fd5b809150509250929050565b60008060408385031215611c3e578182fd5b611c4783611a88565b946020939093013593505050565b600060208284031215611c66578081fd5b8135610fd68161255d565b600060208284031215611c82578081fd5b8151610fd68161255d565b60008060208385031215611c9f578182fd5b823567ffffffffffffffff80821115611cb6578384fd5b818501915085601f830112611cc9578384fd5b813581811115611cd7578485fd5b866020828501011115611ce8578485fd5b60209290920196919550909350505050565b600060208284031215611d0b578081fd5b5035919050565b60008151808452611d2a816020860160208601612485565b601f01601f19169290920160200192915050565b60609190911b6bffffffffffffffffffffffff1916815260140190565b60008351611d6d818460208801612485565b835190830190611d81818360208801612485565b64173539b7b760d91b9101908152600501949350505050565b90565b6001600160a01b0391909116815260200190565b6001600160a01b0385811682528416602082015260408101839052608060608201819052600090611de490830184611d12565b9695505050505050565b901515815260200190565b600060208252610fd66020830184611d12565b60208082526022908201527f455243373231413a206f776e657220696e646578206f7574206f6620626f756e604082015261647360f01b606082015260800190565b60208082526019908201527f4d696e74696e67206973206e6f7420616374697665206e6f7700000000000000604082015260600190565b60208082526026908201527f4f776e61626c653a206e6577206f776e657220697320746865207a65726f206160408201526564647265737360d01b606082015260800190565b6020808252602a908201527f455243373231413a206f776e657220717565727920666f72206e6f6e657869736040820152693a32b73a103a37b5b2b760b11b606082015260800190565b60208082526023908201527f455243373231413a20676c6f62616c20696e646578206f7574206f6620626f756040820152626e647360e81b606082015260800190565b60208082526025908201527f455243373231413a207472616e7366657220746f20746865207a65726f206164604082015264647265737360d81b606082015260800190565b60208082526018908201527f53656e7420696e636f7272656374204554482076616c75650000000000000000604082015260600190565b6020808252601490820152734e6f2066756e647320746f20776974686472617760601b604082015260600190565b60208082526039908201527f455243373231413a20617070726f76652063616c6c6572206973206e6f74206f60408201527f776e6572206e6f7220617070726f76656420666f7220616c6c00000000000000606082015260800190565b60208082526012908201527145786365656473206d617820737570706c7960701b604082015260600190565b6020808252602b908201527f455243373231413a2062616c616e636520717565727920666f7220746865207a60408201526a65726f206164647265737360a81b606082015260800190565b60208082526026908201527f455243373231413a207472616e736665722066726f6d20696e636f72726563746040820152651037bbb732b960d11b606082015260800190565b6020808252818101527f4f776e61626c653a2063616c6c6572206973206e6f7420746865206f776e6572604082015260600190565b6020808252602f908201527f4552433732314d657461646174613a2055524920717565727920666f72206e6f60408201526e3732bc34b9ba32b73a103a37b5b2b760891b606082015260800190565b6020808252601a908201527f455243373231413a20617070726f766520746f2063616c6c6572000000000000604082015260600190565b60208082526032908201527f455243373231413a207472616e736665722063616c6c6572206973206e6f74206040820152711bdddb995c881b9bdc88185c1c1c9bdd995960721b606082015260800190565b60208082526022908201527f455243373231413a20617070726f76616c20746f2063757272656e74206f776e60408201526132b960f11b606082015260800190565b60208082526010908201526f2a3930b739b332b9103330b4b632b21760811b604082015260600190565b60208082526033908201527f455243373231413a207472616e7366657220746f206e6f6e204552433732315260408201527232b1b2b4bb32b91034b6b83632b6b2b73a32b960691b606082015260800190565b60208082526021908201527f455243373231413a206d696e7420746f20746865207a65726f206164647265736040820152607360f81b606082015260800190565b60208082526028908201527f455243373231413a207175616e74697479206d75737420626520677265617465604082015267072207468616e20360c41b606082015260800190565b6020808252602e908201527f455243373231413a20756e61626c6520746f2067657420746f6b656e206f662060408201526d0deeedccae440c4f240d2dcc8caf60931b606082015260800190565b6020808252602d908201527f455243373231413a20617070726f76656420717565727920666f72206e6f6e6560408201526c3c34b9ba32b73a103a37b5b2b760991b606082015260800190565b90815260200190565b918252602082015260400190565b600082198211156124365761243661251b565b500190565b60008261244a5761244a612531565b500490565b60008160001904831182151516156124695761246961251b565b500290565b6000828210156124805761248061251b565b500390565b60005b838110156124a0578181015183820152602001612488565b83811115610f3b5750506000910152565b6002810460018216806124c557607f821691505b602082108114156124e657634e487b7160e01b600052602260045260246000fd5b50919050565b60006000198214156125005761250061251b565b5060010190565b60008261251657612516612531565b500690565b634e487b7160e01b600052601160045260246000fd5b634e487b7160e01b600052601260045260246000fd5b634e487b7160e01b600052604160045260246000fd5b6001600160e01b031981168114610ca757600080fdfea2646970667358221220e3db62d2798857555a835efa1627d1457ddb287fc653081c299f4891f17e471064736f6c63430008000033",
  "linkReferences": {},
  "deployedLinkReferences": {}
}